{
  "abi": [
    {
      "inputs": [
        {
          "internalType": "address",
          "name": "_nativeTokenWrapper",
          "type": "address"
        }
      ],
      "stateMutability": "nonpayable",
      "type": "constructor"
    },
    {
      "anonymous": false,
      "inputs": [
        {
          "indexed": true,
          "internalType": "uint256",
          "name": "listingId",
          "type": "uint256"
        },
        {
          "indexed": true,
          "internalType": "address",
          "name": "buyer",
          "type": "address"
        },
        {
          "indexed": false,
          "internalType": "bool",
          "name": "approved",
          "type": "bool"
        }
      ],
      "name": "BuyerApprovedForListing",
      "type": "event"
    },
    {
      "anonymous": false,
      "inputs": [
        {
          "indexed": true,
          "internalType": "address",
          "name": "listingCreator",
          "type": "address"
        },
        {
          "indexed": true,
          "internalType": "uint256",
          "name": "listingId",
          "type": "uint256"
        }
      ],
      "name": "CancelledListing",
      "type": "event"
    },
    {
      "anonymous": false,
      "inputs": [
        {
          "indexed": true,
          "internalType": "uint256",
          "name": "listingId",
          "type": "uint256"
        },
        {
          "indexed": true,
          "internalType": "address",
          "name": "currency",
          "type": "address"
        },
        {
          "indexed": false,
          "internalType": "uint256",
          "name": "pricePerToken",
          "type": "uint256"
        }
      ],
      "name": "CurrencyApprovedForListing",
      "type": "event"
    },
    {
      "anonymous": false,
      "inputs": [
        {
          "indexed": true,
          "internalType": "address",
          "name": "listingCreator",
          "type": "address"
        },
        {
          "indexed": true,
          "internalType": "uint256",
          "name": "listingId",
          "type": "uint256"
        },
        {
          "indexed": true,
          "internalType": "address",
          "name": "assetContract",
          "type": "address"
        },
        {
          "components": [
            {
              "internalType": "uint256",
              "name": "listingId",
              "type": "uint256"
            },
            {
              "internalType": "address",
              "name": "listingCreator",
              "type": "address"
            },
            {
              "internalType": "address",
              "name": "assetContract",
              "type": "address"
            },
            {
              "internalType": "uint256",
              "name": "tokenId",
              "type": "uint256"
            },
            {
              "internalType": "uint256",
              "name": "quantity",
              "type": "uint256"
            },
            {
              "internalType": "address",
              "name": "currency",
              "type": "address"
            },
            {
              "internalType": "uint256",
              "name": "pricePerToken",
              "type": "uint256"
            },
            {
              "internalType": "uint128",
              "name": "startTimestamp",
              "type": "uint128"
            },
            {
              "internalType": "uint128",
              "name": "endTimestamp",
              "type": "uint128"
            },
            {
              "internalType": "bool",
              "name": "reserved",
              "type": "bool"
            },
            {
              "internalType": "enum IDirectListings.TokenType",
              "name": "tokenType",
              "type": "uint8"
            },
            {
              "internalType": "enum IDirectListings.Status",
              "name": "status",
              "type": "uint8"
            }
          ],
          "indexed": false,
          "internalType": "struct IDirectListings.Listing",
          "name": "listing",
          "type": "tuple"
        }
      ],
      "name": "NewListing",
      "type": "event"
    },
    {
      "anonymous": false,
      "inputs": [
        {
          "indexed": true,
          "internalType": "address",
          "name": "listingCreator",
          "type": "address"
        },
        {
          "indexed": true,
          "internalType": "uint256",
          "name": "listingId",
          "type": "uint256"
        },
        {
          "indexed": true,
          "internalType": "address",
          "name": "assetContract",
          "type": "address"
        },
        {
          "indexed": false,
          "internalType": "uint256",
          "name": "tokenId",
          "type": "uint256"
        },
        {
          "indexed": false,
          "internalType": "address",
          "name": "buyer",
          "type": "address"
        },
        {
          "indexed": false,
          "internalType": "uint256",
          "name": "quantityBought",
          "type": "uint256"
        },
        {
          "indexed": false,
          "internalType": "uint256",
          "name": "totalPricePaid",
          "type": "uint256"
        }
      ],
      "name": "NewSale",
      "type": "event"
    },
    {
      "anonymous": false,
      "inputs": [
        {
          "indexed": true,
          "internalType": "address",
          "name": "listingCreator",
          "type": "address"
        },
        {
          "indexed": true,
          "internalType": "uint256",
          "name": "listingId",
          "type": "uint256"
        },
        {
          "indexed": true,
          "internalType": "address",
          "name": "assetContract",
          "type": "address"
        },
        {
          "components": [
            {
              "internalType": "uint256",
              "name": "listingId",
              "type": "uint256"
            },
            {
              "internalType": "address",
              "name": "listingCreator",
              "type": "address"
            },
            {
              "internalType": "address",
              "name": "assetContract",
              "type": "address"
            },
            {
              "internalType": "uint256",
              "name": "tokenId",
              "type": "uint256"
            },
            {
              "internalType": "uint256",
              "name": "quantity",
              "type": "uint256"
            },
            {
              "internalType": "address",
              "name": "currency",
              "type": "address"
            },
            {
              "internalType": "uint256",
              "name": "pricePerToken",
              "type": "uint256"
            },
            {
              "internalType": "uint128",
              "name": "startTimestamp",
              "type": "uint128"
            },
            {
              "internalType": "uint128",
              "name": "endTimestamp",
              "type": "uint128"
            },
            {
              "internalType": "bool",
              "name": "reserved",
              "type": "bool"
            },
            {
              "internalType": "enum IDirectListings.TokenType",
              "name": "tokenType",
              "type": "uint8"
            },
            {
              "internalType": "enum IDirectListings.Status",
              "name": "status",
              "type": "uint8"
            }
          ],
          "indexed": false,
          "internalType": "struct IDirectListings.Listing",
          "name": "listing",
          "type": "tuple"
        }
      ],
      "name": "UpdatedListing",
      "type": "event"
    },
    {
      "inputs": [],
      "name": "_msgData",
      "outputs": [
        {
          "internalType": "bytes",
          "name": "",
          "type": "bytes"
        }
      ],
      "stateMutability": "view",
      "type": "function"
    },
    {
      "inputs": [],
      "name": "_msgSender",
      "outputs": [
        {
          "internalType": "address",
          "name": "sender",
          "type": "address"
        }
      ],
      "stateMutability": "view",
      "type": "function"
    },
    {
      "inputs": [
        {
          "internalType": "uint256",
          "name": "_listingId",
          "type": "uint256"
        },
        {
          "internalType": "address",
          "name": "_buyer",
          "type": "address"
        },
        {
          "internalType": "bool",
          "name": "_toApprove",
          "type": "bool"
        }
      ],
      "name": "approveBuyerForListing",
      "outputs": [],
      "stateMutability": "nonpayable",
      "type": "function"
    },
    {
      "inputs": [
        {
          "internalType": "uint256",
          "name": "_listingId",
          "type": "uint256"
        },
        {
          "internalType": "address",
          "name": "_currency",
          "type": "address"
        },
        {
          "internalType": "uint256",
          "name": "_pricePerTokenInCurrency",
          "type": "uint256"
        }
      ],
      "name": "approveCurrencyForListing",
      "outputs": [],
      "stateMutability": "nonpayable",
      "type": "function"
    },
    {
      "inputs": [
        {
          "internalType": "uint256",
          "name": "_listingId",
          "type": "uint256"
        },
        {
          "internalType": "address",
          "name": "_buyFor",
          "type": "address"
        },
        {
          "internalType": "uint256",
          "name": "_quantity",
          "type": "uint256"
        },
        {
          "internalType": "address",
          "name": "_currency",
          "type": "address"
        },
        {
          "internalType": "uint256",
          "name": "_expectedTotalPrice",
          "type": "uint256"
        }
      ],
      "name": "buyFromListing",
      "outputs": [],
      "stateMutability": "payable",
      "type": "function"
    },
    {
      "inputs": [
        {
          "internalType": "uint256",
          "name": "_listingId",
          "type": "uint256"
        }
      ],
      "name": "cancelListing",
      "outputs": [],
      "stateMutability": "nonpayable",
      "type": "function"
    },
    {
      "inputs": [
        {
          "components": [
            {
              "internalType": "address",
              "name": "assetContract",
              "type": "address"
            },
            {
              "internalType": "uint256",
              "name": "tokenId",
              "type": "uint256"
            },
            {
              "internalType": "uint256",
              "name": "quantity",
              "type": "uint256"
            },
            {
              "internalType": "address",
              "name": "currency",
              "type": "address"
            },
            {
              "internalType": "uint256",
              "name": "pricePerToken",
              "type": "uint256"
            },
            {
              "internalType": "uint128",
              "name": "startTimestamp",
              "type": "uint128"
            },
            {
              "internalType": "uint128",
              "name": "endTimestamp",
              "type": "uint128"
            },
            {
              "internalType": "bool",
              "name": "reserved",
              "type": "bool"
            }
          ],
          "internalType": "struct IDirectListings.ListingParameters",
          "name": "_params",
          "type": "tuple"
        }
      ],
      "name": "createListing",
      "outputs": [
        {
          "internalType": "uint256",
          "name": "listingId",
          "type": "uint256"
        }
      ],
      "stateMutability": "nonpayable",
      "type": "function"
    },
    {
      "inputs": [
        {
          "internalType": "uint256",
          "name": "_listingId",
          "type": "uint256"
        },
        {
          "internalType": "address",
          "name": "_currency",
          "type": "address"
        }
      ],
      "name": "currencyPriceForListing",
      "outputs": [
        {
          "internalType": "uint256",
          "name": "",
          "type": "uint256"
        }
      ],
      "stateMutability": "view",
      "type": "function"
    },
    {
      "inputs": [
        {
          "internalType": "uint256",
          "name": "_startId",
          "type": "uint256"
        },
        {
          "internalType": "uint256",
          "name": "_endId",
          "type": "uint256"
        }
      ],
      "name": "getAllListings",
      "outputs": [
        {
          "components": [
            {
              "internalType": "uint256",
              "name": "listingId",
              "type": "uint256"
            },
            {
              "internalType": "address",
              "name": "listingCreator",
              "type": "address"
            },
            {
              "internalType": "address",
              "name": "assetContract",
              "type": "address"
            },
            {
              "internalType": "uint256",
              "name": "tokenId",
              "type": "uint256"
            },
            {
              "internalType": "uint256",
              "name": "quantity",
              "type": "uint256"
            },
            {
              "internalType": "address",
              "name": "currency",
              "type": "address"
            },
            {
              "internalType": "uint256",
              "name": "pricePerToken",
              "type": "uint256"
            },
            {
              "internalType": "uint128",
              "name": "startTimestamp",
              "type": "uint128"
            },
            {
              "internalType": "uint128",
              "name": "endTimestamp",
              "type": "uint128"
            },
            {
              "internalType": "bool",
              "name": "reserved",
              "type": "bool"
            },
            {
              "internalType": "enum IDirectListings.TokenType",
              "name": "tokenType",
              "type": "uint8"
            },
            {
              "internalType": "enum IDirectListings.Status",
              "name": "status",
              "type": "uint8"
            }
          ],
          "internalType": "struct IDirectListings.Listing[]",
          "name": "_allListings",
          "type": "tuple[]"
        }
      ],
      "stateMutability": "view",
      "type": "function"
    },
    {
      "inputs": [
        {
          "internalType": "uint256",
          "name": "_startId",
          "type": "uint256"
        },
        {
          "internalType": "uint256",
          "name": "_endId",
          "type": "uint256"
        }
      ],
      "name": "getAllValidListings",
      "outputs": [
        {
          "components": [
            {
              "internalType": "uint256",
              "name": "listingId",
              "type": "uint256"
            },
            {
              "internalType": "address",
              "name": "listingCreator",
              "type": "address"
            },
            {
              "internalType": "address",
              "name": "assetContract",
              "type": "address"
            },
            {
              "internalType": "uint256",
              "name": "tokenId",
              "type": "uint256"
            },
            {
              "internalType": "uint256",
              "name": "quantity",
              "type": "uint256"
            },
            {
              "internalType": "address",
              "name": "currency",
              "type": "address"
            },
            {
              "internalType": "uint256",
              "name": "pricePerToken",
              "type": "uint256"
            },
            {
              "internalType": "uint128",
              "name": "startTimestamp",
              "type": "uint128"
            },
            {
              "internalType": "uint128",
              "name": "endTimestamp",
              "type": "uint128"
            },
            {
              "internalType": "bool",
              "name": "reserved",
              "type": "bool"
            },
            {
              "internalType": "enum IDirectListings.TokenType",
              "name": "tokenType",
              "type": "uint8"
            },
            {
              "internalType": "enum IDirectListings.Status",
              "name": "status",
              "type": "uint8"
            }
          ],
          "internalType": "struct IDirectListings.Listing[]",
          "name": "_validListings",
          "type": "tuple[]"
        }
      ],
      "stateMutability": "view",
      "type": "function"
    },
    {
      "inputs": [
        {
          "internalType": "uint256",
          "name": "_listingId",
          "type": "uint256"
        }
      ],
      "name": "getListing",
      "outputs": [
        {
          "components": [
            {
              "internalType": "uint256",
              "name": "listingId",
              "type": "uint256"
            },
            {
              "internalType": "address",
              "name": "listingCreator",
              "type": "address"
            },
            {
              "internalType": "address",
              "name": "assetContract",
              "type": "address"
            },
            {
              "internalType": "uint256",
              "name": "tokenId",
              "type": "uint256"
            },
            {
              "internalType": "uint256",
              "name": "quantity",
              "type": "uint256"
            },
            {
              "internalType": "address",
              "name": "currency",
              "type": "address"
            },
            {
              "internalType": "uint256",
              "name": "pricePerToken",
              "type": "uint256"
            },
            {
              "internalType": "uint128",
              "name": "startTimestamp",
              "type": "uint128"
            },
            {
              "internalType": "uint128",
              "name": "endTimestamp",
              "type": "uint128"
            },
            {
              "internalType": "bool",
              "name": "reserved",
              "type": "bool"
            },
            {
              "internalType": "enum IDirectListings.TokenType",
              "name": "tokenType",
              "type": "uint8"
            },
            {
              "internalType": "enum IDirectListings.Status",
              "name": "status",
              "type": "uint8"
            }
          ],
          "internalType": "struct IDirectListings.Listing",
          "name": "listing",
          "type": "tuple"
        }
      ],
      "stateMutability": "view",
      "type": "function"
    },
    {
      "inputs": [
        {
          "internalType": "uint256",
          "name": "_listingId",
          "type": "uint256"
        },
        {
          "internalType": "address",
          "name": "_buyer",
          "type": "address"
        }
      ],
      "name": "isBuyerApprovedForListing",
      "outputs": [
        {
          "internalType": "bool",
          "name": "",
          "type": "bool"
        }
      ],
      "stateMutability": "view",
      "type": "function"
    },
    {
      "inputs": [
        {
          "internalType": "uint256",
          "name": "_listingId",
          "type": "uint256"
        },
        {
          "internalType": "address",
          "name": "_currency",
          "type": "address"
        }
      ],
      "name": "isCurrencyApprovedForListing",
      "outputs": [
        {
          "internalType": "bool",
          "name": "",
          "type": "bool"
        }
      ],
      "stateMutability": "view",
      "type": "function"
    },
    {
      "inputs": [],
      "name": "totalListings",
      "outputs": [
        {
          "internalType": "uint256",
          "name": "",
          "type": "uint256"
        }
      ],
      "stateMutability": "view",
      "type": "function"
    },
    {
      "inputs": [
        {
          "internalType": "uint256",
          "name": "_listingId",
          "type": "uint256"
        },
        {
          "components": [
            {
              "internalType": "address",
              "name": "assetContract",
              "type": "address"
            },
            {
              "internalType": "uint256",
              "name": "tokenId",
              "type": "uint256"
            },
            {
              "internalType": "uint256",
              "name": "quantity",
              "type": "uint256"
            },
            {
              "internalType": "address",
              "name": "currency",
              "type": "address"
            },
            {
              "internalType": "uint256",
              "name": "pricePerToken",
              "type": "uint256"
            },
            {
              "internalType": "uint128",
              "name": "startTimestamp",
              "type": "uint128"
            },
            {
              "internalType": "uint128",
              "name": "endTimestamp",
              "type": "uint128"
            },
            {
              "internalType": "bool",
              "name": "reserved",
              "type": "bool"
            }
          ],
          "internalType": "struct IDirectListings.ListingParameters",
          "name": "_params",
          "type": "tuple"
        }
      ],
      "name": "updateListing",
      "outputs": [],
      "stateMutability": "nonpayable",
      "type": "function"
    }
  ],
  "bytecode": {
    "object": "0x60a06040523480156200001157600080fd5b5060405162003f3638038062003f36833981016040819052620000349162000046565b6001600160a01b031660805262000078565b6000602082840312156200005957600080fd5b81516001600160a01b03811681146200007157600080fd5b9392505050565b608051613ea2620000946000396000612d730152613ea26000f3fe6080604052600436106100b85760003560e01c806307b67758146100bd578063107a274a146100df578063119df25f14610115578063305a67a81461013757806331654b4d1461015757806348dd77df14610184578063704232dc146101a4578063746415b5146101b75780638b49d47e146101e55780639cfbe2a614610208578063a851904714610238578063c5275fb014610258578063c78b616c14610278578063ea8f9a3c1461028d578063fb14079d146102ad575b600080fd5b3480156100c957600080fd5b506100dd6100d8366004613664565b6102cd565b005b3480156100eb57600080fd5b506100ff6100fa366004613692565b610af0565b60405161010c91906137b1565b60405180910390f35b34801561012157600080fd5b5061012a610c24565b60405161010c91906137c0565b34801561014357600080fd5b506100dd610152366004613692565b610ca2565b34801561016357600080fd5b506101776101723660046137d4565b610dc3565b60405161010c91906137f6565b34801561019057600080fd5b506100dd61019f366004613845565b6110e0565b6100dd6101b2366004613887565b61127a565b3480156101c357600080fd5b506101d76101d23660046138d9565b6118c9565b60405190815260200161010c565b3480156101f157600080fd5b506101fa611de5565b60405161010c9291906138f2565b34801561021457600080fd5b50610228610223366004613921565b611e80565b604051901515815260200161010c565b34801561024457600080fd5b50610228610253366004613921565b611ebe565b34801561026457600080fd5b506101776102733660046137d4565b611ef6565b34801561028457600080fd5b506101d76120f8565b34801561029957600080fd5b506100dd6102a8366004613951565b61210a565b3480156102b957600080fd5b506101d76102c8366004613921565b612455565b8160006102d8612508565b90506001600083815260018301602052604090206008015462010000900460ff16600381111561030a5761030a6136b8565b146103305760405162461bcd60e51b815260040161032790613989565b60405180910390fd5b825160405163a32fa5b360e01b8152309063a32fa5b390610377907f86d5cf0a6bdc8d859ba3bdc97043337c82a0e609035f378e419298b6a3e00ae69085906004016139c0565b602060405180830381865afa158015610394573d6000803e3d6000fd5b505050506040513d601f19601f820116820180604052508101906103b891906139d7565b6103d45760405162461bcd60e51b8152600401610327906139f4565b8460006103df612508565b90506103e9610c24565b60008381526001808401602052604090912001546001600160a01b039081169116146104275760405162461bcd60e51b815260040161032790613a19565b6000610431612508565b9050600061043d610c24565b60008a815260018085016020908152604080842081516101808101835281548152818501546001600160a01b039081169482019490945260028201548416928101929092526003810154606083015260048101546080830152600581015490921660a0820152600682015460c082015260078201546001600160801b0380821660e0840152600160801b9091041661010080830191909152600883015460ff8082161515610120850152969750949591949293610140860193919091049091169081111561050d5761050d6136b8565b600181111561051e5761051e6136b8565b81526020016008820160029054906101000a900460ff166003811115610546576105466136b8565b6003811115610557576105576136b8565b815250509050600061056c8a6000015161252c565b9050428261010001516001600160801b0316116105cb5760405162461bcd60e51b815260206004820152601d60248201527f4d61726b6574706c6163653a206c697374696e6720657870697265642e0000006044820152606401610327565b89600001516001600160a01b031682604001516001600160a01b03161480156105fb575089602001518260600151145b6106605760405162461bcd60e51b815260206004820152603060248201527f4d61726b6574706c6163653a2063616e6e6f742075706461746520776861742060448201526f3a37b5b2b71034b9903634b9ba32b21760811b6064820152608401610327565b60a08a015160c08b01516001600160801b03808216908316106106955760405162461bcd60e51b815260040161032790613a5a565b428460e001516001600160801b031611806106d857508360e001516001600160801b0316826001600160801b03161480156106d8575042816001600160801b0316115b6107305760405162461bcd60e51b8152602060048201526024808201527f4d61726b6574706c6163653a206c697374696e6720616c72656164792061637460448201526334bb329760e11b6064820152608401610327565b8360e001516001600160801b0316826001600160801b03161415801561075e575042826001600160801b0316105b156107f3574261077083610e10613aca565b6001600160801b031610156107975760405162461bcd60e51b815260040161032790613af5565b4291508361010001516001600160801b0316816001600160801b031614806107c757506001600160801b03818116145b6107ee578b60a001518c60c001516107df9190613b39565b6107e99083613aca565b6107f0565b805b90505b60008660030160008f815260200190815260200160002060008e606001516001600160a01b03166001600160a01b0316815260200190815260200160002054905080600014806108465750808d60800151145b6108ab5760405162461bcd60e51b815260206004820152603060248201527f4d61726b6574706c6163653a20707269636520646966666572656e742066726f60448201526f6d20617070726f76656420707269636560801b6064820152608401610327565b506108b68c8461269b565b6040518061018001604052808e8152602001866001600160a01b031681526020018d600001516001600160a01b031681526020018d6020015181526020018d6040015181526020018d606001516001600160a01b031681526020018d608001518152602001836001600160801b03168152602001826001600160801b031681526020018d60e0015115158152602001846001811115610957576109576136b8565b81526020016001905260008e815260018089016020908152604092839020845181559084015181830180546001600160a01b039283166001600160a01b03199182161790915593850151600283018054918316918616919091179055606085015160038301556080850151600483015560a08501516005830180549190921694169390931790925560c0830151600683015560e0830151610100808501516001600160801b03908116600160801b02921691909117600784015561012084015160088401805491151560ff19831681178255610140870151969a508a9694919361ff001990911661ffff199093169290921791908490811115610a5c57610a5c6136b8565b021790555061016082015160088201805462ff0000191662010000836003811115610a8957610a896136b8565b02179055509050508b600001516001600160a01b03168d866001600160a01b03167f1b02bc7e37d63b0bfe14fcb365a81fbcb6671e3258bd29297461df27c4631d5587604051610ad991906137b1565b60405180910390a450505050505050505050505050565b610af86134d8565b6000610b02612508565b60008481526001808301602090815260409283902083516101808101855281548152818401546001600160a01b039081169382019390935260028201548316948101949094526003810154606085015260048101546080850152600581015490911660a0840152600681015460c084015260078101546001600160801b0380821660e0860152600160801b9091041661010080850191909152600882015460ff80821615156101208701529596509394919361014086019391900490911690811115610bd057610bd06136b8565b6001811115610be157610be16136b8565b81526020016008820160029054906101000a900460ff166003811115610c0957610c096136b8565b6003811115610c1a57610c1a6136b8565b9052509392505050565b60405163572b6c0560e01b8152600090309063572b6c0590610c4a9033906004016137c0565b602060405180830381865afa158015610c67573d6000803e3d6000fd5b505050506040513d601f19601f82011682018060405250810190610c8b91906139d7565b15610c9d575060131936013560601c90565b503390565b806000610cad612508565b90506001600083815260018301602052604090206008015462010000900460ff166003811115610cdf57610cdf6136b8565b14610cfc5760405162461bcd60e51b815260040161032790613989565b826000610d07612508565b9050610d11610c24565b60008381526001808401602052604090912001546001600160a01b03908116911614610d4f5760405162461bcd60e51b815260040161032790613a19565b6000610d59612508565b60008781526001820160205260409020600801805462ff0000191662030000179055905085610d86610c24565b6001600160a01b03167ff6e9b23c95dec70093b0abc1cf13bc5d35c9af03743f941904a4ef664e0119fb60405160405180910390a3505050505050565b60606000610dcf612508565b9050828411158015610de15750805483105b610dfd5760405162461bcd60e51b815260040161032790613b61565b6000610e098585613b88565b610e14906001613b9f565b6001600160401b03811115610e2b57610e2b61353b565b604051908082528060200260200182016040528015610e6457816020015b610e516134d8565b815260200190600190039081610e495790505b5090506000855b858111610fff5760008181526001808601602090815260409283902083516101808101855281548152818401546001600160a01b039081169382019390935260028201548316948101949094526003810154606085015260048101546080850152600581015490911660a0840152600681015460c084015260078101546001600160801b0380821660e0860152600160801b9091041661010080850191909152600882015460ff808216151561012087015292936101408601939290910490911690811115610f3c57610f3c6136b8565b6001811115610f4d57610f4d6136b8565b81526020016008820160029054906101000a900460ff166003811115610f7557610f756136b8565b6003811115610f8657610f866136b8565b90525083610f948984613b88565b81518110610fa457610fa4613bb7565b6020908102919091010152610fda83610fbd8984613b88565b81518110610fcd57610fcd613bb7565b60200260200101516127b7565b15610fed57610fea600183613b9f565b91505b610ff8600182613b9f565b9050610e6b565b50806001600160401b038111156110185761101861353b565b60405190808252806020026020018201604052801561105157816020015b61103e6134d8565b8152602001906001900390816110365790505b508251909450600090815b818110156110d457611079858281518110610fcd57610fcd613bb7565b156110c25784818151811061109057611090613bb7565b60200260200101518784806110a490613bcd565b9550815181106110b6576110b6613bb7565b60200260200101819052505b6110cd600182613b9f565b905061105c565b50505050505092915050565b8260006110eb612508565b90506001600083815260018301602052604090206008015462010000900460ff16600381111561111d5761111d6136b8565b1461113a5760405162461bcd60e51b815260040161032790613989565b846000611145612508565b905061114f610c24565b60008381526001808401602052604090912001546001600160a01b0390811691161461118d5760405162461bcd60e51b815260040161032790613a19565b6000611197612508565b600089815260018201602052604090206008015490915060ff166112085760405162461bcd60e51b815260206004820152602260248201527f4d61726b6574706c6163653a206c697374696e67206e6f742072657365727665604482015261321760f11b6064820152608401610327565b600088815260028201602090815260408083206001600160a01b038b1680855290835292819020805460ff19168a151590811790915590519081528a917f3b557e1ed3b963f7473508fd10c6d7248b593c0dde6acd2a566b92caec84038a910160405180910390a35050505050505050565b7fbbf78d3411d42a81effd97bb8c69faae4e77e75cec462245c1001191a0634c6f8054600214156112ed5760405162461bcd60e51b815260206004820152601f60248201527f5265656e7472616e637947756172643a207265656e7472616e742063616c6c006044820152606401610327565b600281558560006112fc612508565b90506001600083815260018301602052604090206008015462010000900460ff16600381111561132e5761132e6136b8565b1461134b5760405162461bcd60e51b815260040161032790613989565b6000611355612508565b60008a815260018083016020908152604080842081516101808101835281548152818501546001600160a01b039081169482019490945260028201548416928101929092526003810154606083015260048101546080830152600581015490921660a0820152600682015460c082015260078201546001600160801b0380821660e0840152600160801b9091041661010080830191909152600883015460ff80821615156101208501529697509495919492936101408601939190910490911690811115611425576114256136b8565b6001811115611436576114366136b8565b81526020016008820160029054906101000a900460ff16600381111561145e5761145e6136b8565b600381111561146f5761146f6136b8565b9052509050600061147e610c24565b905081610120015115806114b6575060008b815260028401602090815260408083206001600160a01b038516845290915290205460ff165b6114f75760405162461bcd60e51b8152602060048201526012602482015271189d5e595c881b9bdd08185c1c1c9bdd995960721b6044820152606401610327565b60008911801561150b575081608001518911155b6115515760405162461bcd60e51b8152602060048201526017602482015276427579696e6720696e76616c6964207175616e7469747960481b6044820152606401610327565b8161010001516001600160801b03164210801561157b57508160e001516001600160801b03164210155b6115c15760405162461bcd60e51b81526020600482015260176024820152763737ba103bb4ba3434b71039b0b632903bb4b73237bb9760491b6044820152606401610327565b6115df8260200151836040015184606001518c86610140015161282a565b6115fb5760405162461bcd60e51b815260040161032790613be8565b60008b815260038401602090815260408083206001600160a01b038c1684529091528120541561165b5760008c815260038501602090815260408083206001600160a01b038d168452909152902054611654908b613c32565b90506116d0565b8260a001516001600160a01b0316896001600160a01b0316146116be5760405162461bcd60e51b815260206004820152601b60248201527a2830bcb4b7339034b71034b73b30b634b21031bab93932b731bc9760291b6044820152606401610327565b60c08301516116cd908b613c32565b90505b8781146117185760405162461bcd60e51b8152602060048201526016602482015275556e657870656374656420746f74616c20707269636560501b6044820152606401610327565b6001600160a01b03891673eeeeeeeeeeeeeeeeeeeeeeeeeeeeeeeeeeeeeeee14156117b1578034146117ac5760405162461bcd60e51b815260206004820152603760248201527f4d61726b6574706c6163653a206d73672e76616c7565206d75737420657861636044820152763a363c903132903a3432903a37ba30b610383934b1b29760491b6064820152608401610327565b6117bc565b6117bc828a83612ac8565b89836080015114156117eb5760008c81526001850160205260409020600801805462ff00001916620200001790555b60008c8152600185016020526040812060040180548c929061180e908490613b88565b925050819055506118268284602001518b8487612bee565b61183683602001518c8c86612dd9565b82604001516001600160a01b0316836000015184602001516001600160a01b03167ff6e03f1c408cfd2d118397c912a4b576683c43b41b015e3d7c212bac0cd0e7c78660600151868f876040516118af94939291909384526001600160a01b039290921660208401526040830152606082015260800190565b60405180910390a450506001909455505050505050505050565b60003063a32fa5b37ff94103142c1baabe9ac2b5d1487bf783de9e69cfeea9a72f5c9c94afd7877b8c6118fa610c24565b6040518363ffffffff1660e01b81526004016119179291906139c0565b602060405180830381865afa158015611934573d6000803e3d6000fd5b505050506040513d601f19601f8201168201806040525081019061195891906139d7565b6119935760405162461bcd60e51b815260206004820152600c60248201526b214c49535445525f524f4c4560a01b6044820152606401610327565b6119a06020830183613c51565b60405163a32fa5b360e01b8152309063a32fa5b3906119e5907f86d5cf0a6bdc8d859ba3bdc97043337c82a0e609035f378e419298b6a3e00ae69085906004016139c0565b602060405180830381865afa158015611a02573d6000803e3d6000fd5b505050506040513d601f19601f82011682018060405250810190611a2691906139d7565b611a425760405162461bcd60e51b8152600401610327906139f4565b611a4a612f30565b91506000611a56610c24565b90506000611a6f611a6a6020870187613c51565b61252c565b90506000611a8360c0870160a08801613c6e565b90506000611a9760e0880160c08901613c6e565b9050806001600160801b0316826001600160801b031610611aca5760405162461bcd60e51b815260040161032790613a5a565b42826001600160801b03161015611b605742611ae883610e10613aca565b6001600160801b03161015611b0f5760405162461bcd60e51b815260040161032790613af5565b4291506001600160801b0381811614611b5b57611b3260c0880160a08901613c6e565b611b4260e0890160c08a01613c6e565b611b4c9190613b39565b611b569083613aca565b611b5d565b805b90505b611b78611b7236899003890189613c89565b8461269b565b6000604051806101800160405280888152602001866001600160a01b03168152602001896000016020810190611bae9190613c51565b6001600160a01b031681526020018960200135815260200189604001358152602001896060016020810190611be39190613c51565b6001600160a01b031681526080808b013560208301526001600160801b0380871660408401528516606083015201611c226101008b0160e08c01613ca6565b15158152602001856001811115611c3b57611c3b6136b8565b81526020016001905290506000611c50612508565b600089815260018083016020908152604092839020865181559086015181830180546001600160a01b039283166001600160a01b03199182161790915593870151600283018054918316918616919091179055606087015160038301556080870151600483015560a08701516005830180549190921694169390931790925560c0850151600683015560e0850151610100808701516001600160801b03908116600160801b02921691909117600784015561012086015160088401805491151560ff19831681178255610140890151969750889694919361ff001990911661ffff199093169290921791908490811115611d4c57611d4c6136b8565b021790555061016082015160088201805462ff0000191662010000836003811115611d7957611d796136b8565b0217905550611d8e91505060208a018a613c51565b6001600160a01b031688876001600160a01b03167f8f149f1b5fc14b27b6526b740dd7ab3a029263d44dbb17024915a55047940ab485604051611dd191906137b1565b60405180910390a450505050505050919050565b60405163572b6c0560e01b81523690600090309063572b6c0590611e0d9033906004016137c0565b602060405180830381865afa158015611e2a573d6000803e3d6000fd5b505050506040513d601f19601f82011682018060405250810190611e4e91906139d7565b15611e775760008036611e62601482613b88565b92611e6f93929190613cc3565b915091509091565b50600091369150565b600080611e8b612508565b60008581526002909101602090815260408083206001600160a01b038716845290915290205460ff169150505b92915050565b600080611ec9612508565b6000948552600301602090815260408086206001600160a01b039590951686529390525050902054151590565b60606000611f02612508565b9050828411158015611f145750805483105b611f305760405162461bcd60e51b815260040161032790613b61565b611f3a8484613b88565b611f45906001613b9f565b6001600160401b03811115611f5c57611f5c61353b565b604051908082528060200260200182016040528015611f9557816020015b611f826134d8565b815260200190600190039081611f7a5790505b509150835b8381116120f05760008181526001808401602090815260409283902083516101808101855281548152818401546001600160a01b039081169382019390935260028201548316948101949094526003810154606085015260048101546080850152600581015490911660a0840152600681015460c084015260078101546001600160801b0380821660e0860152600160801b9091041661010080850191909152600882015460ff80821615156101208701529293610140860193929091049091169081111561206b5761206b6136b8565b600181111561207c5761207c6136b8565b81526020016008820160029054906101000a900460ff1660038111156120a4576120a46136b8565b60038111156120b5576120b56136b8565b905250836120c38784613b88565b815181106120d3576120d3613bb7565b60209081029190910101526120e9600182613b9f565b9050611f9a565b505092915050565b600080612103612508565b5492915050565b826000612115612508565b90506001600083815260018301602052604090206008015462010000900460ff166003811115612147576121476136b8565b146121645760405162461bcd60e51b815260040161032790613989565b84600061216f612508565b9050612179610c24565b60008381526001808401602052604090912001546001600160a01b039081169116146121b75760405162461bcd60e51b815260040161032790613a19565b60006121c1612508565b600089815260018083016020908152604080842081516101808101835281548152818501546001600160a01b039081169482019490945260028201548416928101929092526003810154606083015260048101546080830152600581015490921660a0820152600682015460c082015260078201546001600160801b0380821660e0840152600160801b9091041661010080830191909152600883015460ff80821615156101208501529697509495919492936101408601939190910490911690811115612291576122916136b8565b60018111156122a2576122a26136b8565b81526020016008820160029054906101000a900460ff1660038111156122ca576122ca6136b8565b60038111156122db576122db6136b8565b8152505090508060a001516001600160a01b0316886001600160a01b031614158061230957508060c0015187145b61237b5760405162461bcd60e51b815260206004820152603d60248201527f4d61726b6574706c6163653a20617070726f76696e67206c697374696e67206360448201527f757272656e6379207769746820646966666572656e742070726963652e0000006064820152608401610327565b600089815260038301602090815260408083206001600160a01b038c1684529091529020548714156123ef5760405162461bcd60e51b815260206004820152601d60248201527f4d61726b6574706c6163653a20707269636520756e6368616e6765642e0000006044820152606401610327565b600089815260038301602090815260408083206001600160a01b038c16808552908352928190208a9055518981528b917f928cc552fea23b15fbd5c6b45fbfc5935c5b4a6397d7fdab884164648a777cf2910160405180910390a3505050505050505050565b600080612460612508565b600085815260038201602090815260408083206001600160a01b03881684529091529020549091506124de5760405162461bcd60e51b815260206004820152602160248201527f43757272656e6379206e6f7420617070726f76656420666f72206c697374696e6044820152606760f81b6064820152608401610327565b6000938452600301602090815260408085206001600160a01b039490941685529290525090205490565b7fbde2ebd6fd7bed2358dd7ed448613644a3349ac97dd3e0ae2ccd1f11b3ebe61390565b6040516301ffc9a760e01b81526000906001600160a01b038316906301ffc9a79061256290636cdb3d1360e11b90600401613ced565b602060405180830381865afa15801561257f573d6000803e3d6000fd5b505050506040513d601f19601f820116820180604052508101906125a391906139d7565b156125b057506001919050565b6040516301ffc9a760e01b81526001600160a01b038316906301ffc9a7906125e3906380ac58cd60e01b90600401613ced565b602060405180830381865afa158015612600573d6000803e3d6000fd5b505050506040513d601f19601f8201168201806040525081019061262491906139d7565b1561263157506000919050565b60405162461bcd60e51b815260206004820152603460248201527f4d61726b6574706c6163653a206c697374656420746f6b656e206d7573742062604482015273329022a92198989a9a9037b91022a9219b99189760611b6064820152608401610327565b919050565b60008260400151116126fb5760405162461bcd60e51b815260206004820152602360248201527f4d61726b6574706c6163653a206c697374696e67207a65726f207175616e74696044820152623a3c9760e91b6064820152608401610327565b81604001516001148061271f5750600181600181111561271d5761271d6136b8565b145b61277a5760405162461bcd60e51b815260206004820152602660248201527f4d61726b6574706c6163653a206c697374696e6720696e76616c696420717561604482015265373a34ba3c9760d11b6064820152608401610327565b612797612785610c24565b8351602085015160408601518561282a565b6127b35760405162461bcd60e51b815260040161032790613be8565b5050565b6000428260e001516001600160801b0316111580156127e35750428261010001516001600160801b0316115b8015612805575060018261016001516003811115612803576128036136b8565b145b8015611eb85750611eb882602001518360400151846060015185608001518661014001515b6000306001836001811115612841576128416136b8565b141561293557604051627eeac760e11b815284906001600160a01b0388169062fdd58e90612875908b908a90600401613d02565b602060405180830381865afa158015612892573d6000803e3d6000fd5b505050506040513d601f19601f820116820180604052508101906128b69190613d1b565b1015801561292e575060405163e985e9c560e01b81526001600160a01b0387169063e985e9c5906128ed908a908590600401613d34565b602060405180830381865afa15801561290a573d6000803e3d6000fd5b505050506040513d601f19601f8201168201806040525081019061292e91906139d7565b9150612abe565b6000836001811115612949576129496136b8565b1415612abe576040516331a9108f60e11b8152600481018690526001600160a01b038089169190881690636352211e90602401602060405180830381865afa158015612999573d6000803e3d6000fd5b505050506040513d601f19601f820116820180604052508101906129bd9190613d4e565b6001600160a01b0316148015612abb575060405163020604bf60e21b8152600481018690526001600160a01b03808316919088169063081812fc90602401602060405180830381865afa158015612a18573d6000803e3d6000fd5b505050506040513d601f19601f82011682018060405250810190612a3c9190613d4e565b6001600160a01b03161480612abb575060405163e985e9c560e01b81526001600160a01b0387169063e985e9c590612a7a908a908590600401613d34565b602060405180830381865afa158015612a97573d6000803e3d6000fd5b505050506040513d601f19601f82011682018060405250810190612abb91906139d7565b91505b5095945050505050565b6040516370a0823160e01b815281906001600160a01b038416906370a0823190612af69087906004016137c0565b602060405180830381865afa158015612b13573d6000803e3d6000fd5b505050506040513d601f19601f82011682018060405250810190612b379190613d1b565b10158015612bb45750604051636eb1769f60e11b815281906001600160a01b0384169063dd62ed3e90612b709087903090600401613d34565b602060405180830381865afa158015612b8d573d6000803e3d6000fd5b505050506040513d601f19601f82011682018060405250810190612bb19190613d1b565b10155b612be95760405162461bcd60e51b815260206004820152600660248201526502142414c32360d41b6044820152606401610327565b505050565b600080306001600160a01b031663d45573f66040518163ffffffff1660e01b81526004016040805180830381865afa158015612c2e573d6000803e3d6000fd5b505050506040513d601f19601f82011682018060405250810190612c529190613d6b565b90925090506000612710612c6a61ffff841687613c32565b612c749190613da1565b905060008085604001516001600160a01b0316632a55205a8760600151896040518363ffffffff1660e01b8152600401612cb8929190918252602082015260400190565b6040805180830381865afa925050508015612cf0575060408051601f3d908101601f19168201909252612ced91810190613dc3565b60015b612cf957612d71565b6001600160a01b03821615801590612d115750600081115b15612d6e5788612d218683613b9f565b1115612d675760405162461bcd60e51b815260206004820152601560248201527466656573206578636565642074686520707269636560581b6044820152606401610327565b8192508093505b50505b7f0000000000000000000000000000000000000000000000000000000000000000612d9f898c888785612f5b565b612dac898c848685612f5b565b612dcc898c8c612dbc8789613b9f565b612dc6908d613b88565b85612f5b565b5050505050505050505050565b60018161014001516001811115612df257612df26136b8565b1415612e875760408082015160608301519151637921219560e11b81526001600160a01b038781166004830152868116602483015260448201939093526064810185905260a06084820152600060a482015291169063f242432a9060c401600060405180830381600087803b158015612e6a57600080fd5b505af1158015612e7e573d6000803e3d6000fd5b50505050612f2a565b60008161014001516001811115612ea057612ea06136b8565b1415612f2a5760408082015160608301519151635c46a7ef60e11b81526001600160a01b03878116600483015286811660248301526044820193909352608060648201526000608482015291169063b88d4fde9060a401600060405180830381600087803b158015612f1157600080fd5b505af1158015612f25573d6000803e3d6000fd5b505050505b50505050565b600080612f3b612508565b8054925090506001816000612f508386613b9f565b925050819055505090565b81612f65576130cb565b6001600160a01b03851673eeeeeeeeeeeeeeeeeeeeeeeeeeeeeeeeeeeeeeee14156130bf576001600160a01b03841630141561300557604051632e1a7d4d60e01b8152600481018390526001600160a01b03821690632e1a7d4d90602401600060405180830381600087803b158015612fdd57600080fd5b505af1158015612ff1573d6000803e3d6000fd5b505050506130008383836130d2565b6130cb565b6001600160a01b0383163014156130b45734821461305b5760405162461bcd60e51b81526020600482015260136024820152721b5cd9cb9d985b1d5948084f48185b5bdd5b9d606a1b6044820152606401610327565b806001600160a01b031663d0e30db0836040518263ffffffff1660e01b81526004016000604051808303818588803b15801561309657600080fd5b505af11580156130aa573d6000803e3d6000fd5b50505050506130cb565b6130008383836130d2565b6130cb85858585613197565b5050505050565b6000836001600160a01b03168360405160006040518083038185875af1925050503d806000811461311f576040519150601f19603f3d011682016040523d82523d6000602084013e613124565b606091505b5050905080612f2a57816001600160a01b031663d0e30db0846040518263ffffffff1660e01b81526004016000604051808303818588803b15801561316857600080fd5b505af115801561317c573d6000803e3d6000fd5b50612f2a935050506001600160a01b038416905085856131f5565b816001600160a01b0316836001600160a01b031614156131b657612f2a565b6001600160a01b0383163014156131e0576131db6001600160a01b03851683836131f5565b612f2a565b612f2a6001600160a01b03851684848461324b565b612be98363a9059cbb60e01b8484604051602401613214929190613d02565b60408051601f198184030181529190526020810180516001600160e01b03166001600160e01b031990931692909217909152613283565b6040516001600160a01b0380851660248301528316604482015260648101829052612f2a9085906323b872dd60e01b90608401613214565b60006132d8826040518060400160405280602081526020017f5361666545524332303a206c6f772d6c6576656c2063616c6c206661696c6564815250856001600160a01b03166133559092919063ffffffff16565b805190915015612be957808060200190518101906132f691906139d7565b612be95760405162461bcd60e51b815260206004820152602a60248201527f5361666545524332303a204552433230206f7065726174696f6e20646964206e6044820152691bdd081cdd58d8d9595960b21b6064820152608401610327565b6060613364848460008561336e565b90505b9392505050565b6060824710156133cf5760405162461bcd60e51b815260206004820152602660248201527f416464726573733a20696e73756666696369656e742062616c616e636520666f6044820152651c8818d85b1b60d21b6064820152608401610327565b6001600160a01b0385163b6134265760405162461bcd60e51b815260206004820152601d60248201527f416464726573733a2063616c6c20746f206e6f6e2d636f6e74726163740000006044820152606401610327565b600080866001600160a01b031685876040516134429190613e1d565b60006040518083038185875af1925050503d806000811461347f576040519150601f19603f3d011682016040523d82523d6000602084013e613484565b606091505b509150915061349482828661349f565b979650505050505050565b606083156134ae575081613367565b8251156134be5782518084602001fd5b8160405162461bcd60e51b81526004016103279190613e39565b6040805161018081018252600080825260208201819052918101829052606081018290526080810182905260a0810182905260c0810182905260e08101829052610100810182905261012081018290529061014082019081526020016000905290565b634e487b7160e01b600052604160045260246000fd5b6001600160a01b038116811461356657600080fd5b50565b803561269681613551565b80356001600160801b038116811461269657600080fd5b801515811461356657600080fd5b80356126968161358b565b60006101008083850312156135b857600080fd5b604051908101906001600160401b03821181831017156135e857634e487b7160e01b600052604160045260246000fd5b816040528092506135f884613569565b8152602084013560208201526040840135604082015261361a60608501613569565b60608201526080840135608082015261363560a08501613574565b60a082015261364660c08501613574565b60c082015261365760e08501613599565b60e0820152505092915050565b600080610120838503121561367857600080fd5b8235915061368984602085016135a4565b90509250929050565b6000602082840312156136a457600080fd5b5035919050565b6001600160a01b03169052565b634e487b7160e01b600052602160045260246000fd5b600281106136de576136de6136b8565b9052565b600481106136de576136de6136b8565b80518252602081015161370860208401826136ab565b50604081015161371b60408401826136ab565b50606081015160608301526080810151608083015260a081015161374260a08401826136ab565b5060c081015160c083015260e081015161376760e08401826001600160801b03169052565b50610100818101516001600160801b031690830152610120808201511515908301526101408082015161379c828501826136ce565b505061016080820151612f2a828501826136e2565b6101808101611eb882846136f2565b6001600160a01b0391909116815260200190565b600080604083850312156137e757600080fd5b50508035926020909101359150565b6020808252825182820181905260009190848201906040850190845b81811015613839576138258385516136f2565b928401926101809290920191600101613812565b50909695505050505050565b60008060006060848603121561385a57600080fd5b83359250602084013561386c81613551565b9150604084013561387c8161358b565b809150509250925092565b600080600080600060a0868803121561389f57600080fd5b8535945060208601356138b181613551565b93506040860135925060608601356138c881613551565b949793965091946080013592915050565b600061010082840312156138ec57600080fd5b50919050565b60208152816020820152818360408301376000818301604090810191909152601f909201601f19160101919050565b6000806040838503121561393457600080fd5b82359150602083013561394681613551565b809150509250929050565b60008060006060848603121561396657600080fd5b83359250602084013561397881613551565b929592945050506040919091013590565b6020808252601d908201527f4d61726b6574706c6163653a20696e76616c6964206c697374696e672e000000604082015260600190565b9182526001600160a01b0316602082015260400190565b6000602082840312156139e957600080fd5b81516133678161358b565b6020808252600b908201526a2141535345545f524f4c4560a81b604082015260600190565b60208082526021908201527f4d61726b6574706c6163653a206e6f74206c697374696e672063726561746f726040820152601760f91b606082015260800190565b6020808252603a908201527f4d61726b6574706c6163653a20656e6454696d657374616d70206e6f7420677260408201527932b0ba32b9103a3430b71039ba30b93a2a34b6b2b9ba30b6b81760311b606082015260800190565b634e487b7160e01b600052601160045260246000fd5b60006001600160801b03828116848216808303821115613aec57613aec613ab4565b01949350505050565b60208082526024908201527f4d61726b6574706c6163653a20696e76616c696420737461727454696d65737460408201526330b6b81760e11b606082015260800190565b60006001600160801b0383811690831681811015613b5957613b59613ab4565b039392505050565b6020808252600d908201526c696e76616c69642072616e676560981b604082015260600190565b600082821015613b9a57613b9a613ab4565b500390565b60008219821115613bb257613bb2613ab4565b500190565b634e487b7160e01b600052603260045260246000fd5b6000600019821415613be157613be1613ab4565b5060010190565b6020808252602a908201527f4d61726b6574706c6163653a206e6f74206f776e6572206f7220617070726f7660408201526932b2103a37b5b2b7399760b11b606082015260800190565b6000816000190483118215151615613c4c57613c4c613ab4565b500290565b600060208284031215613c6357600080fd5b813561336781613551565b600060208284031215613c8057600080fd5b61336782613574565b60006101008284031215613c9c57600080fd5b61336783836135a4565b600060208284031215613cb857600080fd5b81356133678161358b565b60008085851115613cd357600080fd5b83861115613ce057600080fd5b5050820193919092039150565b6001600160e01b031991909116815260200190565b6001600160a01b03929092168252602082015260400190565b600060208284031215613d2d57600080fd5b5051919050565b6001600160a01b0392831681529116602082015260400190565b600060208284031215613d6057600080fd5b815161336781613551565b60008060408385031215613d7e57600080fd5b8251613d8981613551565b602084015190925061ffff8116811461394657600080fd5b600082613dbe57634e487b7160e01b600052601260045260246000fd5b500490565b60008060408385031215613dd657600080fd5b8251613de181613551565b6020939093015192949293505050565b60005b83811015613e0c578181015183820152602001613df4565b83811115612f2a5750506000910152565b60008251613e2f818460208701613df1565b9190910192915050565b6020815260008251806020840152613e58816040850160208701613df1565b601f01601f1916919091016040019291505056fea264697066735822122053be203f018c81b6ba12b33466b0daec69263e435cc876c830aa7bfaa3f4442464736f6c634300080c0033",
    "linkReferences": {}
  },
  "methodIdentifiers": {
    "_msgData()": "8b49d47e",
    "_msgSender()": "119df25f",
    "approveBuyerForListing(uint256,address,bool)": "48dd77df",
    "approveCurrencyForListing(uint256,address,uint256)": "ea8f9a3c",
    "buyFromListing(uint256,address,uint256,address,uint256)": "704232dc",
    "cancelListing(uint256)": "305a67a8",
    "createListing((address,uint256,uint256,address,uint256,uint128,uint128,bool))": "746415b5",
    "currencyPriceForListing(uint256,address)": "fb14079d",
    "getAllListings(uint256,uint256)": "c5275fb0",
    "getAllValidListings(uint256,uint256)": "31654b4d",
    "getListing(uint256)": "107a274a",
    "isBuyerApprovedForListing(uint256,address)": "9cfbe2a6",
    "isCurrencyApprovedForListing(uint256,address)": "a8519047",
    "totalListings()": "c78b616c",
    "updateListing(uint256,(address,uint256,uint256,address,uint256,uint128,uint128,bool))": "07b67758"
  },
  "id": 239
}