{
  "abi": [
    {
      "inputs": [
        {
          "internalType": "address",
          "name": "_pluginMap",
          "type": "address"
        }
      ],
      "stateMutability": "nonpayable",
      "type": "constructor"
    },
    {
      "anonymous": false,
      "inputs": [
        {
          "indexed": false,
          "internalType": "string",
          "name": "prevURI",
          "type": "string"
        },
        {
          "indexed": false,
          "internalType": "string",
          "name": "newURI",
          "type": "string"
        }
      ],
      "name": "ContractURIUpdated",
      "type": "event"
    },
    {
      "anonymous": false,
      "inputs": [
        {
          "indexed": false,
          "internalType": "address",
          "name": "platformFeeRecipient",
          "type": "address"
        },
        {
          "indexed": false,
          "internalType": "uint256",
          "name": "flatFee",
          "type": "uint256"
        }
      ],
      "name": "FlatPlatformFeeUpdated",
      "type": "event"
    },
    {
      "anonymous": false,
      "inputs": [
        {
          "indexed": true,
          "internalType": "address",
          "name": "platformFeeRecipient",
          "type": "address"
        },
        {
          "indexed": false,
          "internalType": "uint256",
          "name": "platformFeeBps",
          "type": "uint256"
        }
      ],
      "name": "PlatformFeeInfoUpdated",
      "type": "event"
    },
    {
      "anonymous": false,
      "inputs": [
        {
          "indexed": false,
          "internalType": "enum IPlatformFee.PlatformFeeType",
          "name": "feeType",
          "type": "uint8"
        }
      ],
      "name": "PlatformFeeTypeUpdated",
      "type": "event"
    },
    {
      "anonymous": false,
      "inputs": [
        {
          "indexed": true,
          "internalType": "bytes4",
          "name": "functionSelector",
          "type": "bytes4"
        },
        {
          "indexed": true,
          "internalType": "address",
          "name": "pluginAddress",
          "type": "address"
        }
      ],
      "name": "PluginAdded",
      "type": "event"
    },
    {
      "anonymous": false,
      "inputs": [
        {
          "indexed": true,
          "internalType": "bytes4",
          "name": "functionSelector",
          "type": "bytes4"
        },
        {
          "indexed": true,
          "internalType": "address",
          "name": "pluginAddress",
          "type": "address"
        }
      ],
      "name": "PluginRemoved",
      "type": "event"
    },
    {
      "anonymous": false,
      "inputs": [
        {
          "indexed": true,
          "internalType": "bytes4",
          "name": "functionSelector",
          "type": "bytes4"
        },
        {
          "indexed": true,
          "internalType": "string",
          "name": "functionSignature",
          "type": "string"
        },
        {
          "indexed": true,
          "internalType": "address",
          "name": "pluginAddress",
          "type": "address"
        }
      ],
      "name": "PluginSet",
      "type": "event"
    },
    {
      "anonymous": false,
      "inputs": [
        {
          "indexed": true,
          "internalType": "bytes4",
          "name": "functionSelector",
          "type": "bytes4"
        },
        {
          "indexed": true,
          "internalType": "address",
          "name": "oldPluginAddress",
          "type": "address"
        },
        {
          "indexed": true,
          "internalType": "address",
          "name": "newPluginAddress",
          "type": "address"
        }
      ],
      "name": "PluginUpdated",
      "type": "event"
    },
    {
      "anonymous": false,
      "inputs": [
        {
          "indexed": true,
          "internalType": "bytes32",
          "name": "role",
          "type": "bytes32"
        },
        {
          "indexed": true,
          "internalType": "bytes32",
          "name": "previousAdminRole",
          "type": "bytes32"
        },
        {
          "indexed": true,
          "internalType": "bytes32",
          "name": "newAdminRole",
          "type": "bytes32"
        }
      ],
      "name": "RoleAdminChanged",
      "type": "event"
    },
    {
      "anonymous": false,
      "inputs": [
        {
          "indexed": true,
          "internalType": "bytes32",
          "name": "role",
          "type": "bytes32"
        },
        {
          "indexed": true,
          "internalType": "address",
          "name": "account",
          "type": "address"
        },
        {
          "indexed": true,
          "internalType": "address",
          "name": "sender",
          "type": "address"
        }
      ],
      "name": "RoleGranted",
      "type": "event"
    },
    {
      "anonymous": false,
      "inputs": [
        {
          "indexed": true,
          "internalType": "bytes32",
          "name": "role",
          "type": "bytes32"
        },
        {
          "indexed": true,
          "internalType": "address",
          "name": "account",
          "type": "address"
        },
        {
          "indexed": true,
          "internalType": "address",
          "name": "sender",
          "type": "address"
        }
      ],
      "name": "RoleRevoked",
      "type": "event"
    },
    {
      "stateMutability": "payable",
      "type": "fallback"
    },
    {
      "inputs": [],
      "name": "DEFAULT_ADMIN_ROLE",
      "outputs": [
        {
          "internalType": "bytes32",
          "name": "",
          "type": "bytes32"
        }
      ],
      "stateMutability": "view",
      "type": "function"
    },
    {
      "inputs": [
        {
          "components": [
            {
              "internalType": "bytes4",
              "name": "functionSelector",
              "type": "bytes4"
            },
            {
              "internalType": "string",
              "name": "functionSignature",
              "type": "string"
            },
            {
              "internalType": "address",
              "name": "pluginAddress",
              "type": "address"
            }
          ],
          "internalType": "struct IPluginMap.Plugin",
          "name": "_plugin",
          "type": "tuple"
        }
      ],
      "name": "addPlugin",
      "outputs": [],
      "stateMutability": "nonpayable",
      "type": "function"
    },
    {
      "inputs": [],
      "name": "contractType",
      "outputs": [
        {
          "internalType": "bytes32",
          "name": "",
          "type": "bytes32"
        }
      ],
      "stateMutability": "pure",
      "type": "function"
    },
    {
      "inputs": [],
      "name": "contractURI",
      "outputs": [
        {
          "internalType": "string",
          "name": "",
          "type": "string"
        }
      ],
      "stateMutability": "view",
      "type": "function"
    },
    {
      "inputs": [],
      "name": "contractVersion",
      "outputs": [
        {
          "internalType": "uint8",
          "name": "",
          "type": "uint8"
        }
      ],
      "stateMutability": "pure",
      "type": "function"
    },
    {
      "inputs": [
        {
          "internalType": "address",
          "name": "_pluginAddress",
          "type": "address"
        }
      ],
      "name": "getAllFunctionsOfPlugin",
      "outputs": [
        {
          "internalType": "bytes4[]",
          "name": "registered",
          "type": "bytes4[]"
        }
      ],
      "stateMutability": "view",
      "type": "function"
    },
    {
      "inputs": [],
      "name": "getAllPlugins",
      "outputs": [
        {
          "components": [
            {
              "internalType": "bytes4",
              "name": "functionSelector",
              "type": "bytes4"
            },
            {
              "internalType": "string",
              "name": "functionSignature",
              "type": "string"
            },
            {
              "internalType": "address",
              "name": "pluginAddress",
              "type": "address"
            }
          ],
          "internalType": "struct IPluginMap.Plugin[]",
          "name": "registered",
          "type": "tuple[]"
        }
      ],
      "stateMutability": "view",
      "type": "function"
    },
    {
      "inputs": [],
      "name": "getPlatformFeeInfo",
      "outputs": [
        {
          "internalType": "address",
          "name": "",
          "type": "address"
        },
        {
          "internalType": "uint16",
          "name": "",
          "type": "uint16"
        }
      ],
      "stateMutability": "view",
      "type": "function"
    },
    {
      "inputs": [
        {
          "internalType": "bytes4",
          "name": "_selector",
          "type": "bytes4"
        }
      ],
      "name": "getPluginForFunction",
      "outputs": [
        {
          "internalType": "address",
          "name": "",
          "type": "address"
        }
      ],
      "stateMutability": "view",
      "type": "function"
    },
    {
      "inputs": [
        {
          "internalType": "bytes32",
          "name": "role",
          "type": "bytes32"
        }
      ],
      "name": "getRoleAdmin",
      "outputs": [
        {
          "internalType": "bytes32",
          "name": "",
          "type": "bytes32"
        }
      ],
      "stateMutability": "view",
      "type": "function"
    },
    {
      "inputs": [
        {
          "internalType": "bytes32",
          "name": "role",
          "type": "bytes32"
        },
        {
          "internalType": "uint256",
          "name": "index",
          "type": "uint256"
        }
      ],
      "name": "getRoleMember",
      "outputs": [
        {
          "internalType": "address",
          "name": "member",
          "type": "address"
        }
      ],
      "stateMutability": "view",
      "type": "function"
    },
    {
      "inputs": [
        {
          "internalType": "bytes32",
          "name": "role",
          "type": "bytes32"
        }
      ],
      "name": "getRoleMemberCount",
      "outputs": [
        {
          "internalType": "uint256",
          "name": "count",
          "type": "uint256"
        }
      ],
      "stateMutability": "view",
      "type": "function"
    },
    {
      "inputs": [
        {
          "internalType": "bytes32",
          "name": "role",
          "type": "bytes32"
        },
        {
          "internalType": "address",
          "name": "account",
          "type": "address"
        }
      ],
      "name": "grantRole",
      "outputs": [],
      "stateMutability": "nonpayable",
      "type": "function"
    },
    {
      "inputs": [
        {
          "internalType": "bytes32",
          "name": "role",
          "type": "bytes32"
        },
        {
          "internalType": "address",
          "name": "account",
          "type": "address"
        }
      ],
      "name": "hasRole",
      "outputs": [
        {
          "internalType": "bool",
          "name": "",
          "type": "bool"
        }
      ],
      "stateMutability": "view",
      "type": "function"
    },
    {
      "inputs": [
        {
          "internalType": "bytes32",
          "name": "role",
          "type": "bytes32"
        },
        {
          "internalType": "address",
          "name": "account",
          "type": "address"
        }
      ],
      "name": "hasRoleWithSwitch",
      "outputs": [
        {
          "internalType": "bool",
          "name": "",
          "type": "bool"
        }
      ],
      "stateMutability": "view",
      "type": "function"
    },
    {
      "inputs": [
        {
          "internalType": "address",
          "name": "_defaultAdmin",
          "type": "address"
        },
        {
          "internalType": "string",
          "name": "_contractURI",
          "type": "string"
        },
        {
          "internalType": "address[]",
          "name": "_trustedForwarders",
          "type": "address[]"
        },
        {
          "internalType": "address",
          "name": "_platformFeeRecipient",
          "type": "address"
        },
        {
          "internalType": "uint16",
          "name": "_platformFeeBps",
          "type": "uint16"
        }
      ],
      "name": "initialize",
      "outputs": [],
      "stateMutability": "nonpayable",
      "type": "function"
    },
    {
      "inputs": [
        {
          "internalType": "address",
          "name": "forwarder",
          "type": "address"
        }
      ],
      "name": "isTrustedForwarder",
      "outputs": [
        {
          "internalType": "bool",
          "name": "",
          "type": "bool"
        }
      ],
      "stateMutability": "view",
      "type": "function"
    },
    {
      "inputs": [
        {
          "internalType": "bytes[]",
          "name": "data",
          "type": "bytes[]"
        }
      ],
      "name": "multicall",
      "outputs": [
        {
          "internalType": "bytes[]",
          "name": "results",
          "type": "bytes[]"
        }
      ],
      "stateMutability": "nonpayable",
      "type": "function"
    },
    {
      "inputs": [
        {
          "internalType": "address",
          "name": "",
          "type": "address"
        },
        {
          "internalType": "address",
          "name": "",
          "type": "address"
        },
        {
          "internalType": "uint256[]",
          "name": "",
          "type": "uint256[]"
        },
        {
          "internalType": "uint256[]",
          "name": "",
          "type": "uint256[]"
        },
        {
          "internalType": "bytes",
          "name": "",
          "type": "bytes"
        }
      ],
      "name": "onERC1155BatchReceived",
      "outputs": [
        {
          "internalType": "bytes4",
          "name": "",
          "type": "bytes4"
        }
      ],
      "stateMutability": "nonpayable",
      "type": "function"
    },
    {
      "inputs": [
        {
          "internalType": "address",
          "name": "",
          "type": "address"
        },
        {
          "internalType": "address",
          "name": "",
          "type": "address"
        },
        {
          "internalType": "uint256",
          "name": "",
          "type": "uint256"
        },
        {
          "internalType": "uint256",
          "name": "",
          "type": "uint256"
        },
        {
          "internalType": "bytes",
          "name": "",
          "type": "bytes"
        }
      ],
      "name": "onERC1155Received",
      "outputs": [
        {
          "internalType": "bytes4",
          "name": "",
          "type": "bytes4"
        }
      ],
      "stateMutability": "nonpayable",
      "type": "function"
    },
    {
      "inputs": [
        {
          "internalType": "address",
          "name": "",
          "type": "address"
        },
        {
          "internalType": "address",
          "name": "",
          "type": "address"
        },
        {
          "internalType": "uint256",
          "name": "",
          "type": "uint256"
        },
        {
          "internalType": "bytes",
          "name": "",
          "type": "bytes"
        }
      ],
      "name": "onERC721Received",
      "outputs": [
        {
          "internalType": "bytes4",
          "name": "",
          "type": "bytes4"
        }
      ],
      "stateMutability": "pure",
      "type": "function"
    },
    {
      "inputs": [],
      "name": "pluginMap",
      "outputs": [
        {
          "internalType": "address",
          "name": "",
          "type": "address"
        }
      ],
      "stateMutability": "view",
      "type": "function"
    },
    {
      "inputs": [
        {
          "internalType": "bytes4",
          "name": "_selector",
          "type": "bytes4"
        }
      ],
      "name": "removePlugin",
      "outputs": [],
      "stateMutability": "nonpayable",
      "type": "function"
    },
    {
      "inputs": [
        {
          "internalType": "bytes32",
          "name": "role",
          "type": "bytes32"
        },
        {
          "internalType": "address",
          "name": "account",
          "type": "address"
        }
      ],
      "name": "renounceRole",
      "outputs": [],
      "stateMutability": "nonpayable",
      "type": "function"
    },
    {
      "inputs": [
        {
          "internalType": "bytes32",
          "name": "role",
          "type": "bytes32"
        },
        {
          "internalType": "address",
          "name": "account",
          "type": "address"
        }
      ],
      "name": "revokeRole",
      "outputs": [],
      "stateMutability": "nonpayable",
      "type": "function"
    },
    {
      "inputs": [
        {
          "internalType": "string",
          "name": "_uri",
          "type": "string"
        }
      ],
      "name": "setContractURI",
      "outputs": [],
      "stateMutability": "nonpayable",
      "type": "function"
    },
    {
      "inputs": [
        {
          "internalType": "address",
          "name": "_platformFeeRecipient",
          "type": "address"
        },
        {
          "internalType": "uint256",
          "name": "_platformFeeBps",
          "type": "uint256"
        }
      ],
      "name": "setPlatformFeeInfo",
      "outputs": [],
      "stateMutability": "nonpayable",
      "type": "function"
    },
    {
      "inputs": [
        {
          "internalType": "bytes4",
          "name": "interfaceId",
          "type": "bytes4"
        }
      ],
      "name": "supportsInterface",
      "outputs": [
        {
          "internalType": "bool",
          "name": "",
          "type": "bool"
        }
      ],
      "stateMutability": "view",
      "type": "function"
    },
    {
      "inputs": [
        {
          "components": [
            {
              "internalType": "bytes4",
              "name": "functionSelector",
              "type": "bytes4"
            },
            {
              "internalType": "string",
              "name": "functionSignature",
              "type": "string"
            },
            {
              "internalType": "address",
              "name": "pluginAddress",
              "type": "address"
            }
          ],
          "internalType": "struct IPluginMap.Plugin",
          "name": "_plugin",
          "type": "tuple"
        }
      ],
      "name": "updatePlugin",
      "outputs": [],
      "stateMutability": "nonpayable",
      "type": "function"
    },
    {
      "stateMutability": "payable",
      "type": "receive"
    }
  ],
  "bytecode": {
    "object": "0x60a06040523480156200001157600080fd5b5060405162002d6438038062002d64833981016040819052620000349162000046565b6001600160a01b031660805262000078565b6000602082840312156200005957600080fd5b81516001600160a01b03811681146200007157600080fd5b9392505050565b608051612cb4620000b0600039600081816101a60152818161053c0152818161099701528181610c5001526111e60152612cb46000f3fe6080604052600436106101615760003560e01c806301ffc9a714610237578063150b7a021461026c5780631ab6b705146102a55780631e7ac488146102c7578063248a9ca3146102e75780632f2ff15d1461031557806336568abe146103355780634cb5d8fd14610355578063572b6c05146103755780635c573f2e146103955780636b86400e146103c25780639010d07c146103e457806391d1485414610411578063938e3d7b14610431578063a0a8e46014610451578063a217fddf1461046d578063a32fa5b314610482578063a520a38a146104a2578063a5342fdf146104c2578063aaae5633146104dd578063ac9650d8146104fd578063b48912da1461052a578063bc197c811461055e578063c511f8fb1461058a578063ca15c873146105aa578063cb2ef6f7146105ca578063d45573f6146105ed578063d547741f14610624578063e8a3d48514610644578063f23a6e611461066657610168565b3661016857005b600061017f6000356001600160e01b031916610692565b90506001600160a01b03811661022b5760405163529051c560e11b81526001600160a01b037f0000000000000000000000000000000000000000000000000000000000000000169063a520a38a906101e7906001600160e01b03196000351690600401611fe4565b602060405180830381865afa158015610204573d6000803e3d6000fd5b505050506040513d601f19601f82011682018060405250810190610228919061201e565b90505b610234816106cc565b50005b34801561024357600080fd5b50610257610252366004612051565b6106f5565b60405190151581526020015b60405180910390f35b34801561027857600080fd5b50610298610287366004612079565b630a85bd0160e11b95945050505050565b6040516102639190611fe4565b3480156102b157600080fd5b506102c56102c0366004612202565b61073b565b005b3480156102d357600080fd5b506102c56102e2366004612298565b610784565b3480156102f357600080fd5b506103076103023660046122c4565b6107b6565b604051908152602001610263565b34801561032157600080fd5b506102c56103303660046122dd565b6107d6565b34801561034157600080fd5b506102c56103503660046122dd565b610880565b34801561036157600080fd5b506102c5610370366004612202565b6108ef565b34801561038157600080fd5b5061025761039036600461230d565b61092d565b3480156103a157600080fd5b506103b56103b036600461230d565b61095b565b604051610263919061232a565b3480156103ce57600080fd5b506103d7610c36565b60405161026391906123d4565b3480156103f057600080fd5b506104046103ff36600461246a565b610ff5565b604051610263919061248c565b34801561041d57600080fd5b5061025761042c3660046122dd565b6110ef565b34801561043d57600080fd5b506102c561044c3660046124a0565b611125565b34801561045d57600080fd5b5060405160018152602001610263565b34801561047957600080fd5b50610307600081565b34801561048e57600080fd5b5061025761049d3660046122dd565b611152565b3480156104ae57600080fd5b506104046104bd366004612051565b6111b3565b3480156104ce57600080fd5b506102c5610370366004612051565b3480156104e957600080fd5b506102c56104f8366004612511565b61126a565b34801561050957600080fd5b5061051d610518366004612607565b611370565b604051610263919061267b565b34801561053657600080fd5b506104047f000000000000000000000000000000000000000000000000000000000000000081565b34801561056a57600080fd5b50610298610579366004612743565b63bc197c8160e01b95945050505050565b34801561059657600080fd5b506104046105a5366004612051565b610692565b3480156105b657600080fd5b506103076105c53660046122c4565b611464565b3480156105d657600080fd5b506c4d61726b6574706c616365563360981b610307565b3480156105f957600080fd5b506106026114f9565b604080516001600160a01b03909316835261ffff909116602083015201610263565b34801561063057600080fd5b506102c561063f3660046122dd565b611525565b34801561065057600080fd5b50610659611559565b60405161026391906127f0565b34801561067257600080fd5b50610298610681366004612803565b63f23a6e6160e01b95945050505050565b60008061069d6115fa565b6001600160e01b031990931660009081526003909301602052505060409020600201546001600160a01b031690565b3660008037600080366000845af43d6000803e8080156106eb573d6000f35b3d6000fd5b505050565b60006001600160e01b03198216630271189760e51b148061072657506001600160e01b03198216630a85bd0160e11b145b8061073557506107358261161e565b92915050565b60405162461bcd60e51b8152602060048201526016602482015275149bdd5d195c8e88139bdd08185d5d1a1bdc9a5e995960521b60448201526064015b60405180910390fd5b50565b61078c611653565b6107a85760405162461bcd60e51b81526004016107789061286b565b6107b28282611666565b5050565b6000806107c161171f565b60009384526001016020525050604090205490565b60006107e061171f565b600084815260018201602052604090205490915061080590610800611743565b611765565b6000838152602082815260408083206001600160a01b038616845290915290205460ff16156108765760405162461bcd60e51b815260206004820152601d60248201527f43616e206f6e6c79206772616e7420746f206e6f6e20686f6c646572730000006044820152606401610778565b6106f083836117f0565b806001600160a01b0316610892611743565b6001600160a01b0316146108e55760405162461bcd60e51b815260206004820152601a60248201527921b0b71037b7363c903932b737bab731b2903337b91039b2b63360311b6044820152606401610778565b6107b28282611804565b60405162461bcd60e51b815260206004820152601360248201527213585c0e88139bdd08185d5d1a1bdc9a5e9959606a1b6044820152606401610778565b600080610938611818565b6001600160a01b0390931660009081526020939093525050604090205460ff1690565b606060006109676115fa565b6001600160a01b0380851660009081526002830160205260408082209051632e2b9f9760e11b81529394509290917f00000000000000000000000000000000000000000000000000000000000000001690635c573f2e906109cc90889060040161248c565b600060405180830381865afa1580156109e9573d6000803e3d6000fd5b505050506040513d6000823e601f3d908101601f19168201604052610a119190810190612893565b8051909150600081610a228561183c565b610a2c9190612942565b905060005b82811015610ac457610a6f848281518110610a4e57610a4e61295a565b60200260200101516001600160e01b0319168661184690919063ffffffff16565b15610ab257610a7f600183612970565b9150600060e01b848281518110610a9857610a9861295a565b6001600160e01b0319909216602092830291909101909101525b610abd600182612942565b9050610a31565b50806001600160401b03811115610add57610add612117565b604051908082528060200260200182016040528015610b06578160200160208202803683370190505b5095506000805b83811015610ba7578451600090869083908110610b2c57610b2c61295a565b60200260200101516001600160e01b03191614610b9557848181518110610b5557610b5561295a565b6020026020010151888380610b6990612987565b945081518110610b7b57610b7b61295a565b6001600160e01b0319909216602092830291909101909101525b610ba0600182612942565b9050610b0d565b50610bb18561183c565b925060005b83811015610c2a576001600160a01b03891660009081526002880160205260409020610be2908261185e565b8883610bed81612987565b945081518110610bff57610bff61295a565b6001600160e01b031990921660209283029190910190910152610c23600182612942565b9050610bb6565b50505050505050919050565b60606000610c426115fa565b9050600081600001905060007f00000000000000000000000000000000000000000000000000000000000000006001600160a01b0316636b86400e6040518163ffffffff1660e01b8152600401600060405180830381865afa158015610cac573d6000803e3d6000fd5b505050506040513d6000823e601f3d908101601f19168201604052610cd491908101906129a2565b90506000610ce18361183c565b82519091506000610cf28284612942565b905060005b83811015610daf5760005b83811015610d9c57858181518110610d1c57610d1c61295a565b6020908102919091010151516001600160e01b031916610d3c888461185e565b6001600160e01b0319161415610d8a57610d57600184612970565b9250600060e01b868281518110610d7057610d7061295a565b60209081029190910101516001600160e01b031990911690525b610d95600182612942565b9050610d02565b50610da8600182612942565b9050610cf7565b50806001600160401b03811115610dc857610dc8612117565b604051908082528060200260200182016040528015610e1857816020015b60408051606080820183526000808352602083019190915291810191909152815260200190600190039081610de65790505b5096506000805b83811015610eb0578551600090879083908110610e3e57610e3e61295a565b6020026020010151600001516001600160e01b03191614610e9e57858181518110610e6b57610e6b61295a565b6020026020010151898381518110610e8557610e8561295a565b6020908102919091010152610e9b600183612942565b91505b610ea9600182612942565b9050610e1f565b5060005b84811015610fea57600388016000610ecc898461185e565b6001600160e01b031990811682526020808301939093526040918201600020825160608101909352805460e01b90911682526001810180549293919291840191610f1590612ae2565b80601f0160208091040260200160405190810160405280929190818152602001828054610f4190612ae2565b8015610f8e5780601f10610f6357610100808354040283529160200191610f8e565b820191906000526020600020905b815481529060010190602001808311610f7157829003601f168201915b5050509183525050600291909101546001600160a01b031660209091015289518a9084908110610fc057610fc061295a565b6020908102919091010152610fd6600183612942565b9150610fe3600182612942565b9050610eb4565b505050505050505090565b60008061100061186a565b600085815260208290526040812054919250805b828110156110e5576000878152602085815260408083208484526001019091529020546001600160a01b031615611090578582141561107e576000878152602094855260408082209282526001909201909452909220546001600160a01b03169250610735915050565b611089600183612942565b91506110d3565b61109b8760006110ef565b80156110c0575060008781526020858152604080832083805260020190915290205481145b156110d3576110d0600183612942565b91505b6110de600182612942565b9050611014565b5050505092915050565b6000806110fa61171f565b6000948552602090815260408086206001600160a01b03959095168652939052505090205460ff1690565b61112d611653565b6111495760405162461bcd60e51b81526004016107789061286b565b6107818161188e565b60008061115d61171f565b60008581526020828152604080832083805290915290205490915060ff166111a9576000848152602091825260408082206001600160a01b0386168352909252205460ff169050610735565b5060019392505050565b6000806111bf83610692565b90506001600160a01b0381166112615760405163529051c560e11b81526001600160a01b037f0000000000000000000000000000000000000000000000000000000000000000169063a520a38a9061121b908690600401611fe4565b602060405180830381865afa158015611238573d6000803e3d6000fd5b505050506040513d601f19601f8201168201806040525081019061125c919061201e565b611263565b805b9392505050565b7f627d6cbb4eb558f37de3c2ec08b04710e54e06be936a302f087f7bfb80f39ae0805460ff16156112d45760405162461bcd60e51b815260206004820152601460248201527320b63932b0b23c9034b734ba34b0b634bd32b21760611b6044820152606401610778565b805460ff191660011781556112e761197e565b6112f0846119a9565b6112f98561188e565b611307838361ffff16611666565b6113126000876117f0565b61133d7ff94103142c1baabe9ac2b5d1487bf783de9e69cfeea9a72f5c9c94afd7877b8c60006117f0565b6113687f86d5cf0a6bdc8d859ba3bdc97043337c82a0e609035f378e419298b6a3e00ae660006117f0565b505050505050565b6060816001600160401b0381111561138a5761138a612117565b6040519080825280602002602001820160405280156113bd57816020015b60608152602001906001900390816113a85790505b50905060005b8281101561145d5761142d308585848181106113e1576113e161295a565b90506020028101906113f39190612b1d565b8080601f0160208091040260200160405190810160405280939291908181526020018383808284376000920191909152506119b292505050565b82828151811061143f5761143f61295a565b6020026020010181905250808061145590612987565b9150506113c3565b5092915050565b60008061146f61186a565b6000848152602082905260408120549192505b818110156114d3576000858152602084815260408083208484526001019091529020546001600160a01b0316156114c1576114be600185612942565b93505b6114cc600182612942565b9050611482565b506114df8460006110ef565b156114f2576114ef600184612942565b92505b5050919050565b60008060006115066119d7565b546001600160a01b03811694600160a01b90910461ffff169350915050565b600061152f61171f565b600084815260018201602052604090205490915061154f90610800611743565b6106f08383611804565b606060006115656119fb565b905080600001805461157690612ae2565b80601f01602080910402602001604051908101604052809291908181526020018280546115a290612ae2565b80156115ef5780601f106115c4576101008083540402835291602001916115ef565b820191906000526020600020905b8154815290600101906020018083116115d257829003601f168201915b505050505091505090565b7f1a3e4131826bb378aa43abb34a33a366bc4a35b55ab18a884fa205b59285ec4590565b60006001600160e01b0319821663f337402760e01b148061073557506301ffc9a760e01b6001600160e01b0319831614610735565b60006116618161042c611743565b905090565b60006116706119d7565b90506127108211156116b65760405162461bcd60e51b815260206004820152600f60248201526e45786365656473206d61782062707360881b6044820152606401610778565b80546001600160b01b031916600160a01b61ffff8416026001600160a01b031916176001600160a01b03841690811782556040518381527fe2497bd806ec41a6e0dd992c29a72efc0ef8fec9092d1978fd4a1e00b2f183049060200160405180910390a2505050565b7fd0ebebe8e6445c62babf8fef767eb39f1002bb957bb5b83258275a4e46428ed590565b600061174e3361092d565b15611760575060131936013560601c90565b503390565b600061176f61171f565b6000848152602082815260408083206001600160a01b038716845290915290205490915060ff166106f0576117ae826001600160a01b03166014611a1f565b6117b9846020611a1f565b6040516020016117ca929190612b86565b60408051601f198184030181529082905262461bcd60e51b8252610778916004016127f0565b6117fa8282611bba565b6107b28282611c3e565b61180e8282611cb5565b6107b28282611d40565b7fa140e363058a6cf3ca062c5e378319d7ddd21cedfbdca620f1c65b05028f156c90565b6000610735825490565b60008181526001830160205260408120541515611263565b60006112638383611d95565b7f0c4ba382c0009cf238e4c1ca1a52f51c61e6248a70bdfb34e5ed49d5578a5c0c90565b60006118986119fb565b905060008160000180546118ab90612ae2565b80601f01602080910402602001604051908101604052809291908181526020018280546118d790612ae2565b80156119245780601f106118f957610100808354040283529160200191611924565b820191906000526020600020905b81548152906001019060200180831161190757829003601f168201915b5050865193945061193f938693506020880192509050611f4b565b507fc9c7c3fe08b88b4df9d4d47ef47d2c43d55c025a0ba88ca442580ed9e7348a168184604051611971929190612bf3565b60405180910390a1505050565b6119a760017fbbf78d3411d42a81effd97bb8c69faae4e77e75cec462245c1001191a0634c6f55565b565b61078181611dbf565b60606112638383604051806060016040528060278152602001612c5860279139611e35565b7f4aeb3f25cc46659cf4e4966e5c48b11e9400e6e4bfafae7e3dc6cc3fbc858deb90565b7fa7d40346e44ca145e94a946aa34a7d4a67245577dc18699a626fe0ffc6ce328190565b60606000611a2e836002612c21565b611a39906002612942565b6001600160401b03811115611a5057611a50612117565b6040519080825280601f01601f191660200182016040528015611a7a576020820181803683370190505b509050600360fc1b81600081518110611a9557611a9561295a565b60200101906001600160f81b031916908160001a905350600f60fb1b81600181518110611ac457611ac461295a565b60200101906001600160f81b031916908160001a9053506000611ae8846002612c21565b611af3906001612942565b90505b6001811115611b6b576f181899199a1a9b1b9c1cb0b131b232b360811b85600f1660108110611b2757611b2761295a565b1a60f81b828281518110611b3d57611b3d61295a565b60200101906001600160f81b031916908160001a90535060049490941c93611b6481612c40565b9050611af6565b5083156112635760405162461bcd60e51b815260206004820181905260248201527f537472696e67733a20686578206c656e67746820696e73756666696369656e746044820152606401610778565b6000611bc461171f565b6000848152602082815260408083206001600160a01b03871684529091529020805460ff191660011790559050611bf9611743565b6001600160a01b0316826001600160a01b0316847f2f8788117e7eff1d82e926ec794901d17c78024a50270940304540a733656f0d60405160405180910390a4505050565b6000611c4861186a565b60008481526020829052604081208054929350600191611c688385612942565b909155505060009384526020918252604080852082865260018101845281862080546001600160a01b039096166001600160a01b0319909616861790559385526002909301909152912055565b6000611cbf61171f565b9050611ccb8383611765565b6000838152602082815260408083206001600160a01b03861684529091529020805460ff19169055611cfb611743565b6001600160a01b0316826001600160a01b0316847ff6391f5c32d9c69d2a47ea670b442974b53935d1edc7fd64eb21e047a839171b60405160405180910390a4505050565b6000611d4a61186a565b6000938452602090815260408085206001600160a01b0390941680865260028501808452828720805488526001909601845291862080546001600160a01b0319169055855290525055565b6000826000018281548110611dac57611dac61295a565b9060005260206000200154905092915050565b6000611dc9611818565b905060005b82518110156106f0576001826000016000858481518110611df157611df161295a565b6020908102919091018101516001600160a01b03168252810191909152604001600020805460ff191691151591909117905580611e2d81612987565b915050611dce565b60606001600160a01b0384163b611e9d5760405162461bcd60e51b815260206004820152602660248201527f416464726573733a2064656c65676174652063616c6c20746f206e6f6e2d636f6044820152651b9d1c9858dd60d21b6064820152608401610778565b600080856001600160a01b031685604051611eb89190612b6a565b600060405180830381855af49150503d8060008114611ef3576040519150601f19603f3d011682016040523d82523d6000602084013e611ef8565b606091505b5091509150611f08828286611f12565b9695505050505050565b60608315611f21575081611263565b825115611f315782518084602001fd5b8160405162461bcd60e51b815260040161077891906127f0565b828054611f5790612ae2565b90600052602060002090601f016020900481019282611f795760008555611fbf565b82601f10611f9257805160ff1916838001178555611fbf565b82800160010185558215611fbf579182015b82811115611fbf578251825591602001919060010190611fa4565b50611fcb929150611fcf565b5090565b5b80821115611fcb5760008155600101611fd0565b6001600160e01b031991909116815260200190565b6001600160a01b038116811461078157600080fd5b805161201981611ff9565b919050565b60006020828403121561203057600080fd5b815161126381611ff9565b6001600160e01b03198116811461078157600080fd5b60006020828403121561206357600080fd5b81356112638161203b565b803561201981611ff9565b60008060008060006080868803121561209157600080fd5b853561209c81611ff9565b945060208601356120ac81611ff9565b93506040860135925060608601356001600160401b03808211156120cf57600080fd5b818801915088601f8301126120e357600080fd5b8135818111156120f257600080fd5b89602082850101111561210457600080fd5b9699959850939650602001949392505050565b634e487b7160e01b600052604160045260246000fd5b604051606081016001600160401b038111828210171561214f5761214f612117565b60405290565b604051601f8201601f191681016001600160401b038111828210171561217d5761217d612117565b604052919050565b60006001600160401b0382111561219e5761219e612117565b50601f01601f191660200190565b600082601f8301126121bd57600080fd5b81356121d06121cb82612185565b612155565b8181528460208386010111156121e557600080fd5b816020850160208301376000918101602001919091529392505050565b60006020828403121561221457600080fd5b81356001600160401b038082111561222b57600080fd5b908301906060828603121561223f57600080fd5b61224761212d565b82356122528161203b565b815260208301358281111561226657600080fd5b612272878286016121ac565b6020830152506040830135925061228883611ff9565b6040810192909252509392505050565b600080604083850312156122ab57600080fd5b82356122b681611ff9565b946020939093013593505050565b6000602082840312156122d657600080fd5b5035919050565b600080604083850312156122f057600080fd5b82359150602083013561230281611ff9565b809150509250929050565b60006020828403121561231f57600080fd5b813561126381611ff9565b6020808252825182820181905260009190848201906040850190845b8181101561236c5783516001600160e01b03191683529284019291840191600101612346565b50909695505050505050565b60005b8381101561239357818101518382015260200161237b565b838111156123a2576000848401525b50505050565b600081518084526123c0816020860160208601612378565b601f01601f19169290920160200192915050565b60006020808301818452808551808352604092508286019150828160051b87010184880160005b8381101561245c57888303603f19018552815180516001600160e01b031916845287810151606089860181905290612435828701826123a8565b928901516001600160a01b03169589019590955250948701949250908601906001016123fb565b509098975050505050505050565b6000806040838503121561247d57600080fd5b50508035926020909101359150565b6001600160a01b0391909116815260200190565b6000602082840312156124b257600080fd5b81356001600160401b038111156124c857600080fd5b6124d4848285016121ac565b949350505050565b60006001600160401b038211156124f5576124f5612117565b5060051b60200190565b803561ffff8116811461201957600080fd5b600080600080600060a0868803121561252957600080fd5b853561253481611ff9565b94506020868101356001600160401b038082111561255157600080fd5b61255d8a838b016121ac565b9650604089013591508082111561257357600080fd5b508701601f8101891361258557600080fd5b80356125936121cb826124dc565b81815260059190911b8201830190838101908b8311156125b257600080fd5b928401925b828410156125d95783356125ca81611ff9565b825292840192908401906125b7565b80975050505050506125ed6060870161206e565b91506125fb608087016124ff565b90509295509295909350565b6000806020838503121561261a57600080fd5b82356001600160401b038082111561263157600080fd5b818501915085601f83011261264557600080fd5b81358181111561265457600080fd5b8660208260051b850101111561266957600080fd5b60209290920196919550909350505050565b6000602080830181845280855180835260408601915060408160051b870101925083870160005b828110156126d057603f198886030184526126be8583516123a8565b945092850192908501906001016126a2565b5092979650505050505050565b600082601f8301126126ee57600080fd5b813560206126fe6121cb836124dc565b82815260059290921b8401810191818101908684111561271d57600080fd5b8286015b848110156127385780358352918301918301612721565b509695505050505050565b600080600080600060a0868803121561275b57600080fd5b853561276681611ff9565b9450602086013561277681611ff9565b935060408601356001600160401b038082111561279257600080fd5b61279e89838a016126dd565b945060608801359150808211156127b457600080fd5b6127c089838a016126dd565b935060808801359150808211156127d657600080fd5b506127e3888289016121ac565b9150509295509295909350565b60208152600061126360208301846123a8565b600080600080600060a0868803121561281b57600080fd5b853561282681611ff9565b9450602086013561283681611ff9565b9350604086013592506060860135915060808601356001600160401b0381111561285f57600080fd5b6127e3888289016121ac565b6020808252600e908201526d139bdd08185d5d1a1bdc9a5e995960921b604082015260600190565b600060208083850312156128a657600080fd5b82516001600160401b038111156128bc57600080fd5b8301601f810185136128cd57600080fd5b80516128db6121cb826124dc565b81815260059190911b820183019083810190878311156128fa57600080fd5b928401925b828410156129215783516129128161203b565b825292840192908401906128ff565b979650505050505050565b634e487b7160e01b600052601160045260246000fd5b600082198211156129555761295561292c565b500190565b634e487b7160e01b600052603260045260246000fd5b6000828210156129825761298261292c565b500390565b600060001982141561299b5761299b61292c565b5060010190565b600060208083850312156129b557600080fd5b82516001600160401b03808211156129cc57600080fd5b818501915085601f8301126129e057600080fd5b81516129ee6121cb826124dc565b81815260059190911b83018401908481019088831115612a0d57600080fd5b8585015b83811015612ad557805185811115612a2857600080fd5b86016060818c03601f19011215612a3f5760008081fd5b612a4761212d565b88820151612a548161203b565b815260408281015188811115612a6a5760008081fd5b8301603f81018e13612a7c5760008081fd5b8a810151612a8c6121cb82612185565b8181528f84838501011115612aa15760008081fd5b612ab0828e8301868601612378565b848d015250612ac390506060840161200e565b90820152845250918601918601612a11565b5098975050505050505050565b600181811c90821680612af657607f821691505b60208210811415612b1757634e487b7160e01b600052602260045260246000fd5b50919050565b6000808335601e19843603018112612b3457600080fd5b8301803591506001600160401b03821115612b4e57600080fd5b602001915036819003821315612b6357600080fd5b9250929050565b60008251612b7c818460208701612378565b9190910192915050565b7402832b936b4b9b9b4b7b7399d1030b1b1b7bab73a1605d1b815260008351612bb6816015850160208801612378565b7001034b99036b4b9b9b4b733903937b6329607d1b6015918401918201528351612be7816026840160208801612378565b01602601949350505050565b604081526000612c0660408301856123a8565b8281036020840152612c1881856123a8565b95945050505050565b6000816000190483118215151615612c3b57612c3b61292c565b500290565b600081612c4f57612c4f61292c565b50600019019056fe416464726573733a206c6f772d6c6576656c2064656c65676174652063616c6c206661696c6564a2646970667358221220aed0c9dfcce56792faa8b43cecec195ebb396e13b3355ece3070757ff1443d7364736f6c634300080c0033",
    "linkReferences": {}
  },
  "methodIdentifiers": {
    "DEFAULT_ADMIN_ROLE()": "a217fddf",
    "addPlugin((bytes4,string,address))": "1ab6b705",
    "contractType()": "cb2ef6f7",
    "contractURI()": "e8a3d485",
    "contractVersion()": "a0a8e460",
    "getAllFunctionsOfPlugin(address)": "5c573f2e",
    "getAllPlugins()": "6b86400e",
    "getPlatformFeeInfo()": "d45573f6",
    "getPluginForFunction(bytes4)": "a520a38a",
    "getRoleAdmin(bytes32)": "248a9ca3",
    "getRoleMember(bytes32,uint256)": "9010d07c",
    "getRoleMemberCount(bytes32)": "ca15c873",
    "grantRole(bytes32,address)": "2f2ff15d",
    "hasRole(bytes32,address)": "91d14854",
    "hasRoleWithSwitch(bytes32,address)": "a32fa5b3",
    "initialize(address,string,address[],address,uint16)": "aaae5633",
    "isTrustedForwarder(address)": "572b6c05",
    "multicall(bytes[])": "ac9650d8",
    "onERC1155BatchReceived(address,address,uint256[],uint256[],bytes)": "bc197c81",
    "onERC1155Received(address,address,uint256,uint256,bytes)": "f23a6e61",
    "onERC721Received(address,address,uint256,bytes)": "150b7a02",
    "pluginMap()": "b48912da",
    "removePlugin(bytes4)": "a5342fdf",
    "renounceRole(bytes32,address)": "36568abe",
    "revokeRole(bytes32,address)": "d547741f",
    "setContractURI(string)": "938e3d7b",
    "setPlatformFeeInfo(address,uint256)": "1e7ac488",
    "supportsInterface(bytes4)": "01ffc9a7",
    "updatePlugin((bytes4,string,address))": "4cb5d8fd"
  },
  "id": 244
}