{
  "_format": "hh-sol-artifact-1",
  "contractName": "NFTMarketplace",
  "sourceName": "contracts/NFTMarketplace.sol",
  "abi": [
    {
      "inputs": [],
      "stateMutability": "nonpayable",
      "type": "constructor"
    },
    {
      "inputs": [
        {
          "internalType": "address",
          "name": "account",
          "type": "address"
        }
      ],
      "name": "AddressInsufficientBalance",
      "type": "error"
    },
    {
      "inputs": [],
      "name": "FailedInnerCall",
      "type": "error"
    },
    {
      "inputs": [
        {
          "internalType": "address",
          "name": "owner",
          "type": "address"
        }
      ],
      "name": "OwnableInvalidOwner",
      "type": "error"
    },
    {
      "inputs": [
        {
          "internalType": "address",
          "name": "account",
          "type": "address"
        }
      ],
      "name": "OwnableUnauthorizedAccount",
      "type": "error"
    },
    {
      "anonymous": false,
      "inputs": [
        {
          "indexed": true,
          "internalType": "address",
          "name": "previousOwner",
          "type": "address"
        },
        {
          "indexed": true,
          "internalType": "address",
          "name": "newOwner",
          "type": "address"
        }
      ],
      "name": "OwnershipTransferred",
      "type": "event"
    },
    {
      "inputs": [
        {
          "internalType": "address",
          "name": "nftContract",
          "type": "address"
        },
        {
          "internalType": "uint256",
          "name": "tokenId",
          "type": "uint256"
        }
      ],
      "name": "buy",
      "outputs": [],
      "stateMutability": "payable",
      "type": "function"
    },
    {
      "inputs": [
        {
          "internalType": "address",
          "name": "",
          "type": "address"
        },
        {
          "internalType": "uint256",
          "name": "",
          "type": "uint256"
        }
      ],
      "name": "isListed",
      "outputs": [
        {
          "internalType": "bool",
          "name": "",
          "type": "bool"
        }
      ],
      "stateMutability": "view",
      "type": "function"
    },
    {
      "inputs": [
        {
          "internalType": "address",
          "name": "nftContract",
          "type": "address"
        },
        {
          "internalType": "uint256",
          "name": "tokenId",
          "type": "uint256"
        }
      ],
      "name": "list",
      "outputs": [],
      "stateMutability": "nonpayable",
      "type": "function"
    },
    {
      "inputs": [],
      "name": "owner",
      "outputs": [
        {
          "internalType": "address",
          "name": "",
          "type": "address"
        }
      ],
      "stateMutability": "view",
      "type": "function"
    },
    {
      "inputs": [],
      "name": "renounceOwnership",
      "outputs": [],
      "stateMutability": "nonpayable",
      "type": "function"
    },
    {
      "inputs": [
        {
          "internalType": "address",
          "name": "newOwner",
          "type": "address"
        }
      ],
      "name": "transferOwnership",
      "outputs": [],
      "stateMutability": "nonpayable",
      "type": "function"
    },
    {
      "inputs": [],
      "name": "withdraw",
      "outputs": [],
      "stateMutability": "nonpayable",
      "type": "function"
    }
  ],
  "bytecode": "0x608060405234801561001057600080fd5b50338061003757604051631e4fbdf760e01b81526000600482015260240160405180910390fd5b61004081610046565b50610096565b600080546001600160a01b038381166001600160a01b0319831681178455604051919092169283917f8be0079c531659141344cd1fd0a4f28419497f9722a3daafe3b4186f6b6457e09190a35050565b6105fd806100a56000396000f3fe6080604052600436106100705760003560e01c80638da5cb5b1161004e5780638da5cb5b146100c1578063cce7ec13146100ee578063cdb3cd2514610101578063f2fde38b1461014c57600080fd5b80633ccfd60b14610075578063715018a61461008c57806377c6212b146100a1575b600080fd5b34801561008157600080fd5b5061008a61016c565b005b34801561009857600080fd5b5061008a610180565b3480156100ad57600080fd5b5061008a6100bc36600461057b565b610192565b3480156100cd57600080fd5b506000546040516001600160a01b0390911681526020015b60405180910390f35b61008a6100fc36600461057b565b61022a565b34801561010d57600080fd5b5061013c61011c36600461057b565b600160209081526000928352604080842090915290825290205460ff1681565b60405190151581526020016100e5565b34801561015857600080fd5b5061008a6101673660046105a5565b61038c565b6101746103e3565b61017e3347610429565b565b6101886103e3565b61017e60006104f7565b6040516323b872dd60e01b8152336004820152306024820152604481018290526001600160a01b038316906323b872dd90606401600060405180830381600087803b1580156101e057600080fd5b505af11580156101f4573d6000803e3d6000fd5b5050506001600160a01b039092166000908152600160208181526040808420948452939052919020805460ff1916909117905550565b66038d7ea4c680003410156102865760405162461bcd60e51b815260206004820152601660248201527f4e6f7420656e6f7567682066756e6420746f206275790000000000000000000060448201526064015b60405180910390fd5b6001600160a01b038216600090815260016020908152604080832084845290915290205460ff166102f95760405162461bcd60e51b815260206004820152601160248201527f4e6674206973206e6f74206c6973746564000000000000000000000000000000604482015260640161027d565b6040516323b872dd60e01b8152306004820152336024820152604481018290526001600160a01b038316906323b872dd90606401600060405180830381600087803b15801561034757600080fd5b505af115801561035b573d6000803e3d6000fd5b5050506001600160a01b03909216600090815260016020908152604080832093835292905220805460ff1916905550565b6103946103e3565b6001600160a01b0381166103d7576040517f1e4fbdf70000000000000000000000000000000000000000000000000000000081526000600482015260240161027d565b6103e0816104f7565b50565b6000546001600160a01b0316331461017e576040517f118cdaa700000000000000000000000000000000000000000000000000000000815233600482015260240161027d565b80471015610465576040517fcd78605900000000000000000000000000000000000000000000000000000000815230600482015260240161027d565b6000826001600160a01b03168260405160006040518083038185875af1925050503d80600081146104b2576040519150601f19603f3d011682016040523d82523d6000602084013e6104b7565b606091505b50509050806104f2576040517f1425ea4200000000000000000000000000000000000000000000000000000000815260040160405180910390fd5b505050565b600080546001600160a01b038381167fffffffffffffffffffffffff0000000000000000000000000000000000000000831681178455604051919092169283917f8be0079c531659141344cd1fd0a4f28419497f9722a3daafe3b4186f6b6457e09190a35050565b80356001600160a01b038116811461057657600080fd5b919050565b6000806040838503121561058e57600080fd5b6105978361055f565b946020939093013593505050565b6000602082840312156105b757600080fd5b6105c08261055f565b939250505056fea26469706673582212208c685612be94dc708cb585d80e06c5f479cece211f94d5681c66226422168e3864736f6c63430008140033",
  "linkReferences": {},
  "deployedLinkReferences": {}
}