{
  "_format": "hh-sol-artifact-1",
  "contractName": "NFTMarketplace",
  "sourceName": "contracts/NFTMarketplace.sol",
  "abi": [
    {
      "inputs": [],
      "stateMutability": "nonpayable",
      "type": "constructor"
    },
    {
      "inputs": [
        {
          "internalType": "address",
          "name": "account",
          "type": "address"
        }
      ],
      "name": "AddressInsufficientBalance",
      "type": "error"
    },
    {
      "inputs": [],
      "name": "FailedInnerCall",
      "type": "error"
    },
    {
      "inputs": [
        {
          "internalType": "address",
          "name": "owner",
          "type": "address"
        }
      ],
      "name": "OwnableInvalidOwner",
      "type": "error"
    },
    {
      "inputs": [
        {
          "internalType": "address",
          "name": "account",
          "type": "address"
        }
      ],
      "name": "OwnableUnauthorizedAccount",
      "type": "error"
    },
    {
      "anonymous": false,
      "inputs": [
        {
          "indexed": true,
          "internalType": "address",
          "name": "previousOwner",
          "type": "address"
        },
        {
          "indexed": true,
          "internalType": "address",
          "name": "newOwner",
          "type": "address"
        }
      ],
      "name": "OwnershipTransferred",
      "type": "event"
    },
    {
      "inputs": [
        {
          "internalType": "address",
          "name": "nftContract",
          "type": "address"
        },
        {
          "internalType": "uint256",
          "name": "tokenId",
          "type": "uint256"
        }
      ],
      "name": "buy",
      "outputs": [],
      "stateMutability": "payable",
      "type": "function"
    },
    {
      "inputs": [
        {
          "internalType": "address",
          "name": "",
          "type": "address"
        },
        {
          "internalType": "uint256",
          "name": "",
          "type": "uint256"
        }
      ],
      "name": "isListed",
      "outputs": [
        {
          "internalType": "bool",
          "name": "",
          "type": "bool"
        }
      ],
      "stateMutability": "view",
      "type": "function"
    },
    {
      "inputs": [
        {
          "internalType": "address",
          "name": "nftContract",
          "type": "address"
        },
        {
          "internalType": "uint256",
          "name": "tokenId",
          "type": "uint256"
        }
      ],
      "name": "list",
      "outputs": [],
      "stateMutability": "nonpayable",
      "type": "function"
    },
    {
      "inputs": [
        {
          "internalType": "address",
          "name": "",
          "type": "address"
        },
        {
          "internalType": "uint256",
          "name": "",
          "type": "uint256"
        }
      ],
      "name": "nftOwner",
      "outputs": [
        {
          "internalType": "address",
          "name": "",
          "type": "address"
        }
      ],
      "stateMutability": "view",
      "type": "function"
    },
    {
      "inputs": [],
      "name": "owner",
      "outputs": [
        {
          "internalType": "address",
          "name": "",
          "type": "address"
        }
      ],
      "stateMutability": "view",
      "type": "function"
    },
    {
      "inputs": [],
      "name": "renounceOwnership",
      "outputs": [],
      "stateMutability": "nonpayable",
      "type": "function"
    },
    {
      "inputs": [
        {
          "internalType": "address",
          "name": "newOwner",
          "type": "address"
        }
      ],
      "name": "transferOwnership",
      "outputs": [],
      "stateMutability": "nonpayable",
      "type": "function"
    },
    {
      "inputs": [],
      "name": "withdraw",
      "outputs": [],
      "stateMutability": "nonpayable",
      "type": "function"
    }
  ],
  "bytecode": "0x608060405234801561001057600080fd5b50338061003757604051631e4fbdf760e01b81526000600482015260240160405180910390fd5b61004081610046565b50610096565b600080546001600160a01b038381166001600160a01b0319831681178455604051919092169283917f8be0079c531659141344cd1fd0a4f28419497f9722a3daafe3b4186f6b6457e09190a35050565b6106d3806100a56000396000f3fe60806040526004361061007b5760003560e01c8063b603c7d01161004e578063b603c7d014610103578063cce7ec1314610144578063cdb3cd2514610157578063f2fde38b146101a257600080fd5b80633ccfd60b14610080578063715018a61461009757806377c6212b146100ac5780638da5cb5b146100cc575b600080fd5b34801561008c57600080fd5b506100956101c2565b005b3480156100a357600080fd5b506100956101d6565b3480156100b857600080fd5b506100956100c7366004610622565b6101e8565b3480156100d857600080fd5b506000546001600160a01b03165b6040516001600160a01b0390911681526020015b60405180910390f35b34801561010f57600080fd5b506100e661011e366004610622565b60026020908152600092835260408084209091529082529020546001600160a01b031681565b610095610152366004610622565b6102af565b34801561016357600080fd5b50610192610172366004610622565b600160209081526000928352604080842090915290825290205460ff1681565b60405190151581526020016100fa565b3480156101ae57600080fd5b506100956101bd36600461064c565b61043e565b6101ca610495565b6101d433476104db565b565b6101de610495565b6101d460006105a9565b6040516323b872dd60e01b8152336004820152306024820152604481018290526001600160a01b038316906323b872dd90606401600060405180830381600087803b15801561023657600080fd5b505af115801561024a573d6000803e3d6000fd5b5050506001600160a01b0390921660008181526001602081815260408084208685528252808420805460ff1916909317909255928252600283528082209382529290915220805473ffffffffffffffffffffffffffffffffffffffff19163317905550565b66038d7ea4c6800034101561030b5760405162461bcd60e51b815260206004820152601660248201527f4e6f7420656e6f7567682066756e6420746f206275790000000000000000000060448201526064015b60405180910390fd5b6001600160a01b038216600090815260016020908152604080832084845290915290205460ff1661037e5760405162461bcd60e51b815260206004820152601160248201527f4e6674206973206e6f74206c69737465640000000000000000000000000000006044820152606401610302565b6040516323b872dd60e01b8152306004820152336024820152604481018290526001600160a01b038316906323b872dd90606401600060405180830381600087803b1580156103cc57600080fd5b505af11580156103e0573d6000803e3d6000fd5b505050506001600160a01b0382166000818152600160208181526040808420868552825292839020805460ff19169055825190810190925291815261043a918390811061042f5761042f61066e565b6020020151346104db565b5050565b610446610495565b6001600160a01b038116610489576040517f1e4fbdf700000000000000000000000000000000000000000000000000000000815260006004820152602401610302565b610492816105a9565b50565b6000546001600160a01b031633146101d4576040517f118cdaa7000000000000000000000000000000000000000000000000000000008152336004820152602401610302565b80471015610517576040517fcd786059000000000000000000000000000000000000000000000000000000008152306004820152602401610302565b6000826001600160a01b03168260405160006040518083038185875af1925050503d8060008114610564576040519150601f19603f3d011682016040523d82523d6000602084013e610569565b606091505b50509050806105a4576040517f1425ea4200000000000000000000000000000000000000000000000000000000815260040160405180910390fd5b505050565b600080546001600160a01b0383811673ffffffffffffffffffffffffffffffffffffffff19831681178455604051919092169283917f8be0079c531659141344cd1fd0a4f28419497f9722a3daafe3b4186f6b6457e09190a35050565b80356001600160a01b038116811461061d57600080fd5b919050565b6000806040838503121561063557600080fd5b61063e83610606565b946020939093013593505050565b60006020828403121561065e57600080fd5b61066782610606565b9392505050565b7f4e487b7100000000000000000000000000000000000000000000000000000000600052603260045260246000fdfea2646970667358221220cbd183e8811fb1f0fc0d4fc77e6315ac1bc343d3e71524737060b427d1dc582d64736f6c63430008140033",
  "linkReferences": {},
  "deployedLinkReferences": {}
}