{
  "_format": "hh-sol-artifact-1",
  "contractName": "Stake7007",
  "sourceName": "contracts/Stake7007.sol",
  "abi": [
    {
      "inputs": [
        {
          "internalType": "address",
          "name": "tokenAddr",
          "type": "address"
        }
      ],
      "stateMutability": "nonpayable",
      "type": "constructor"
    },
    {
      "inputs": [
        {
          "internalType": "address",
          "name": "owner",
          "type": "address"
        }
      ],
      "name": "OwnableInvalidOwner",
      "type": "error"
    },
    {
      "inputs": [
        {
          "internalType": "address",
          "name": "account",
          "type": "address"
        }
      ],
      "name": "OwnableUnauthorizedAccount",
      "type": "error"
    },
    {
      "anonymous": false,
      "inputs": [
        {
          "indexed": true,
          "internalType": "address",
          "name": "previousOwner",
          "type": "address"
        },
        {
          "indexed": true,
          "internalType": "address",
          "name": "newOwner",
          "type": "address"
        }
      ],
      "name": "OwnershipTransferred",
      "type": "event"
    },
    {
      "inputs": [
        {
          "internalType": "address",
          "name": "user",
          "type": "address"
        },
        {
          "internalType": "uint256",
          "name": "amount",
          "type": "uint256"
        }
      ],
      "name": "consumeInferencePoint",
      "outputs": [],
      "stateMutability": "nonpayable",
      "type": "function"
    },
    {
      "inputs": [
        {
          "internalType": "address",
          "name": "",
          "type": "address"
        }
      ],
      "name": "consumedInferencePoint",
      "outputs": [
        {
          "internalType": "uint256",
          "name": "",
          "type": "uint256"
        }
      ],
      "stateMutability": "view",
      "type": "function"
    },
    {
      "inputs": [
        {
          "internalType": "address",
          "name": "user",
          "type": "address"
        }
      ],
      "name": "getInferencePoint",
      "outputs": [
        {
          "internalType": "uint256",
          "name": "",
          "type": "uint256"
        }
      ],
      "stateMutability": "view",
      "type": "function"
    },
    {
      "inputs": [],
      "name": "owner",
      "outputs": [
        {
          "internalType": "address",
          "name": "",
          "type": "address"
        }
      ],
      "stateMutability": "view",
      "type": "function"
    },
    {
      "inputs": [],
      "name": "renounceOwnership",
      "outputs": [],
      "stateMutability": "nonpayable",
      "type": "function"
    },
    {
      "inputs": [
        {
          "internalType": "uint256",
          "name": "amount",
          "type": "uint256"
        }
      ],
      "name": "stake",
      "outputs": [],
      "stateMutability": "nonpayable",
      "type": "function"
    },
    {
      "inputs": [
        {
          "internalType": "address",
          "name": "",
          "type": "address"
        }
      ],
      "name": "stakeStartTime",
      "outputs": [
        {
          "internalType": "uint256",
          "name": "",
          "type": "uint256"
        }
      ],
      "stateMutability": "view",
      "type": "function"
    },
    {
      "inputs": [
        {
          "internalType": "address",
          "name": "",
          "type": "address"
        }
      ],
      "name": "stakedAmount",
      "outputs": [
        {
          "internalType": "uint256",
          "name": "",
          "type": "uint256"
        }
      ],
      "stateMutability": "view",
      "type": "function"
    },
    {
      "inputs": [],
      "name": "token",
      "outputs": [
        {
          "internalType": "contract Token7007",
          "name": "",
          "type": "address"
        }
      ],
      "stateMutability": "view",
      "type": "function"
    },
    {
      "inputs": [
        {
          "internalType": "address",
          "name": "newOwner",
          "type": "address"
        }
      ],
      "name": "transferOwnership",
      "outputs": [],
      "stateMutability": "nonpayable",
      "type": "function"
    }
  ],
  "bytecode": "0x608060405234801561001057600080fd5b5060405161071838038061071883398101604081905261002f916100d4565b338061005557604051631e4fbdf760e01b81526000600482015260240160405180910390fd5b61005e81610084565b50600180546001600160a01b0319166001600160a01b0392909216919091179055610104565b600080546001600160a01b038381166001600160a01b0319831681178455604051919092169283917f8be0079c531659141344cd1fd0a4f28419497f9722a3daafe3b4186f6b6457e09190a35050565b6000602082840312156100e657600080fd5b81516001600160a01b03811681146100fd57600080fd5b9392505050565b610605806101136000396000f3fe608060405234801561001057600080fd5b50600436106100be5760003560e01c8063a958cf9e11610076578063f2fde38b1161005b578063f2fde38b1461017e578063f993185514610191578063fc0c546a146101b157600080fd5b8063a958cf9e1461014b578063adf04c581461016b57600080fd5b8063715018a6116100a7578063715018a61461010b5780638da5cb5b14610113578063a694fc3a1461013857600080fd5b80634ab3a3b6146100c35780636985e6d8146100d8575b600080fd5b6100d66100d13660046104dc565b6101c4565b005b6100f86100e6366004610506565b60036020526000908152604090205481565b6040519081526020015b60405180910390f35b6100d6610296565b6000546001600160a01b03165b6040516001600160a01b039091168152602001610102565b6100d6610146366004610528565b6102aa565b6100f8610159366004610506565b60046020526000908152604090205481565b6100f8610179366004610506565b610378565b6100d661018c366004610506565b6103bb565b6100f861019f366004610506565b60026020526000908152604090205481565b600154610120906001600160a01b031681565b6101cc610412565b6001600160a01b038216600090815260046020526040812080548392906101f4908490610570565b90915550506001600160a01b03821660009081526004602052604081205461021b84610378565b6102259190610583565b1015610292576040517f08c379a000000000000000000000000000000000000000000000000000000000815260206004820152601a60248201527f4e6f7420656e6f75676820696e666572656e636520706f696e7400000000000060448201526064015b60405180910390fd5b5050565b61029e610412565b6102a86000610458565b565b6001546040517f23b872dd000000000000000000000000000000000000000000000000000000008152336004820152306024820152604481018390526001600160a01b03909116906323b872dd906064016020604051808303816000875af115801561031a573d6000803e3d6000fd5b505050506040513d601f19601f8201168201806040525081019061033e9190610596565b50336000908152600260205260408120805483929061035e908490610570565b909155505033600090815260036020526040902042905550565b336000908152600360205260408120546103929042610583565b6001600160a01b0383166000908152600260205260409020546103b591906105b8565b92915050565b6103c3610412565b6001600160a01b038116610406576040517f1e4fbdf700000000000000000000000000000000000000000000000000000000815260006004820152602401610289565b61040f81610458565b50565b6000546001600160a01b031633146102a8576040517f118cdaa7000000000000000000000000000000000000000000000000000000008152336004820152602401610289565b600080546001600160a01b038381167fffffffffffffffffffffffff0000000000000000000000000000000000000000831681178455604051919092169283917f8be0079c531659141344cd1fd0a4f28419497f9722a3daafe3b4186f6b6457e09190a35050565b80356001600160a01b03811681146104d757600080fd5b919050565b600080604083850312156104ef57600080fd5b6104f8836104c0565b946020939093013593505050565b60006020828403121561051857600080fd5b610521826104c0565b9392505050565b60006020828403121561053a57600080fd5b5035919050565b7f4e487b7100000000000000000000000000000000000000000000000000000000600052601160045260246000fd5b808201808211156103b5576103b5610541565b818103818111156103b5576103b5610541565b6000602082840312156105a857600080fd5b8151801515811461052157600080fd5b80820281158282048414176103b5576103b561054156fea264697066735822122092657f7244161fa4c11aef10e25219553e729411d2ff2a7dc87f18679894ecc164736f6c63430008140033",
  "linkReferences": {},
  "deployedLinkReferences": {}
}